{
	"InitialValue.sol": {
		"InitialValue": {
			"abi": [
				{
					"inputs": [],
					"name": "_address",
					"outputs": [
						{
							"internalType": "address",
							"name": "",
							"type": "address"
						}
					],
					"stateMutability": "view",
					"type": "function"
				},
				{
					"inputs": [],
					"name": "_bool",
					"outputs": [
						{
							"internalType": "bool",
							"name": "",
							"type": "bool"
						}
					],
					"stateMutability": "view",
					"type": "function"
				},
				{
					"inputs": [],
					"name": "_bool2",
					"outputs": [
						{
							"internalType": "bool",
							"name": "",
							"type": "bool"
						}
					],
					"stateMutability": "view",
					"type": "function"
				},
				{
					"inputs": [
						{
							"internalType": "uint256",
							"name": "",
							"type": "uint256"
						}
					],
					"name": "_dynamicArray",
					"outputs": [
						{
							"internalType": "uint256",
							"name": "",
							"type": "uint256"
						}
					],
					"stateMutability": "view",
					"type": "function"
				},
				{
					"inputs": [],
					"name": "_enum",
					"outputs": [
						{
							"internalType": "enum InitialValue.ActionSet",
							"name": "",
							"type": "uint8"
						}
					],
					"stateMutability": "view",
					"type": "function"
				},
				{
					"inputs": [],
					"name": "_int",
					"outputs": [
						{
							"internalType": "int256",
							"name": "",
							"type": "int256"
						}
					],
					"stateMutability": "view",
					"type": "function"
				},
				{
					"inputs": [
						{
							"internalType": "uint256",
							"name": "",
							"type": "uint256"
						}
					],
					"name": "_mapping",
					"outputs": [
						{
							"internalType": "address",
							"name": "",
							"type": "address"
						}
					],
					"stateMutability": "view",
					"type": "function"
				},
				{
					"inputs": [
						{
							"internalType": "uint256",
							"name": "",
							"type": "uint256"
						}
					],
					"name": "_staticArray",
					"outputs": [
						{
							"internalType": "uint256",
							"name": "",
							"type": "uint256"
						}
					],
					"stateMutability": "view",
					"type": "function"
				},
				{
					"inputs": [],
					"name": "_string",
					"outputs": [
						{
							"internalType": "string",
							"name": "",
							"type": "string"
						}
					],
					"stateMutability": "view",
					"type": "function"
				},
				{
					"inputs": [],
					"name": "_uint",
					"outputs": [
						{
							"internalType": "uint256",
							"name": "",
							"type": "uint256"
						}
					],
					"stateMutability": "view",
					"type": "function"
				},
				{
					"inputs": [],
					"name": "d",
					"outputs": [],
					"stateMutability": "nonpayable",
					"type": "function"
				},
				{
					"inputs": [],
					"name": "fe",
					"outputs": [],
					"stateMutability": "nonpayable",
					"type": "function"
				},
				{
					"inputs": [],
					"name": "student",
					"outputs": [
						{
							"internalType": "uint256",
							"name": "id",
							"type": "uint256"
						},
						{
							"internalType": "uint256",
							"name": "score",
							"type": "uint256"
						}
					],
					"stateMutability": "view",
					"type": "function"
				}
			],
			"devdoc": {
				"kind": "dev",
				"methods": {},
				"version": 1
			},
			"evm": {
				"assembly": "    /* \"InitialValue.sol\":58:1059  contract InitialValue {... */\n  mstore(0x40, 0x80)\n    /* \"InitialValue.sol\":948:952  true */\n  0x01\n    /* \"InitialValue.sol\":927:952  bool public _bool2 = true */\n  0x11\n  exp(0x0100, 0x00)\n  dup2\n  sload\n  dup2\n  0xff\n  mul\n  not\n  and\n  swap1\n  dup4\n  iszero\n  iszero\n  mul\n  or\n  swap1\n  sstore\n  pop\n    /* \"InitialValue.sol\":58:1059  contract InitialValue {... */\n  callvalue\n  dup1\n  iszero\n  tag_1\n  jumpi\n  0x00\n  dup1\n  revert\ntag_1:\n  pop\n  dataSize(sub_0)\n  dup1\n  dataOffset(sub_0)\n  0x00\n  codecopy\n  0x00\n  return\nstop\n\nsub_0: assembly {\n        /* \"InitialValue.sol\":58:1059  contract InitialValue {... */\n      mstore(0x40, 0x80)\n      callvalue\n      dup1\n      iszero\n      tag_1\n      jumpi\n      0x00\n      dup1\n      revert\n    tag_1:\n      pop\n      jumpi(tag_2, lt(calldatasize, 0x04))\n      shr(0xe0, calldataload(0x00))\n      dup1\n      0x8a054ac2\n      gt\n      tag_16\n      jumpi\n      dup1\n      0xa2ba3ee4\n      gt\n      tag_17\n      jumpi\n      dup1\n      0xa2ba3ee4\n      eq\n      tag_12\n      jumpi\n      dup1\n      0xa2e7fe8a\n      eq\n      tag_13\n      jumpi\n      dup1\n      0xaf45869e\n      eq\n      tag_14\n      jumpi\n      dup1\n      0xea8e4fd1\n      eq\n      tag_15\n      jumpi\n      jump(tag_2)\n    tag_17:\n      dup1\n      0x8a054ac2\n      eq\n      tag_9\n      jumpi\n      dup1\n      0x9b267f09\n      eq\n      tag_10\n      jumpi\n      dup1\n      0x9e6ba9c2\n      eq\n      tag_11\n      jumpi\n      jump(tag_2)\n    tag_16:\n      dup1\n      0x12b7b142\n      eq\n      tag_3\n      jumpi\n      dup1\n      0x18bad217\n      eq\n      tag_4\n      jumpi\n      dup1\n      0x2543135b\n      eq\n      tag_5\n      jumpi\n      dup1\n      0x30c0826f\n      eq\n      tag_6\n      jumpi\n      dup1\n      0x699450e8\n      eq\n      tag_7\n      jumpi\n      dup1\n      0x86ed6eac\n      eq\n      tag_8\n      jumpi\n    tag_2:\n      0x00\n      dup1\n      revert\n        /* \"InitialValue.sol\":520:547  uint[8] public _staticArray */\n    tag_3:\n      tag_18\n      0x04\n      dup1\n      calldatasize\n      sub\n      dup2\n      add\n      swap1\n      tag_19\n      swap2\n      swap1\n      tag_20\n      jump\t// in\n    tag_19:\n      tag_21\n      jump\t// in\n    tag_18:\n      mload(0x40)\n      tag_22\n      swap2\n      swap1\n      tag_23\n      jump\t// in\n    tag_22:\n      mload(0x40)\n      dup1\n      swap2\n      sub\n      swap1\n      return\n        /* \"InitialValue.sol\":224:247  address public _address */\n    tag_4:\n      tag_24\n      tag_25\n      jump\t// in\n    tag_24:\n      mload(0x40)\n      tag_26\n      swap2\n      swap1\n      tag_27\n      jump\t// in\n    tag_26:\n      mload(0x40)\n      dup1\n      swap2\n      sub\n      swap1\n      return\n        /* \"InitialValue.sol\":196:213  uint public _uint */\n    tag_5:\n      tag_28\n      tag_29\n      jump\t// in\n    tag_28:\n      mload(0x40)\n      tag_30\n      swap2\n      swap1\n      tag_23\n      jump\t// in\n    tag_30:\n      mload(0x40)\n      dup1\n      swap2\n      sub\n      swap1\n      return\n        /* \"InitialValue.sol\":338:360  ActionSet public _enum */\n    tag_6:\n      tag_31\n      tag_32\n      jump\t// in\n    tag_31:\n      mload(0x40)\n      tag_33\n      swap2\n      swap1\n      tag_34\n      jump\t// in\n    tag_33:\n      mload(0x40)\n      dup1\n      swap2\n      sub\n      swap1\n      return\n        /* \"InitialValue.sol\":875:897  Student public student */\n    tag_7:\n      tag_35\n      tag_36\n      jump\t// in\n    tag_35:\n      mload(0x40)\n      tag_37\n      swap3\n      swap2\n      swap1\n      tag_38\n      jump\t// in\n    tag_37:\n      mload(0x40)\n      dup1\n      swap2\n      sub\n      swap1\n      return\n        /* \"InitialValue.sol\":442:466  function fe() external{} */\n    tag_8:\n      tag_39\n      tag_40\n      jump\t// in\n    tag_39:\n      stop\n        /* \"InitialValue.sol\":959:1057  function d() external {... */\n    tag_9:\n      tag_41\n      tag_42\n      jump\t// in\n    tag_41:\n      stop\n        /* \"InitialValue.sol\":137:158  string public _string */\n    tag_10:\n      tag_43\n      tag_44\n      jump\t// in\n    tag_43:\n      mload(0x40)\n      tag_45\n      swap2\n      swap1\n      tag_46\n      jump\t// in\n    tag_45:\n      mload(0x40)\n      dup1\n      swap2\n      sub\n      swap1\n      return\n        /* \"InitialValue.sol\":105:122  bool public _bool */\n    tag_11:\n      tag_47\n      tag_48\n      jump\t// in\n    tag_47:\n      mload(0x40)\n      tag_49\n      swap2\n      swap1\n      tag_50\n      jump\t// in\n    tag_49:\n      mload(0x40)\n      dup1\n      swap2\n      sub\n      swap1\n      return\n        /* \"InitialValue.sol\":660:700  mapping(uint => address) public _mapping */\n    tag_12:\n      tag_51\n      0x04\n      dup1\n      calldatasize\n      sub\n      dup2\n      add\n      swap1\n      tag_52\n      swap2\n      swap1\n      tag_20\n      jump\t// in\n    tag_52:\n      tag_53\n      jump\t// in\n    tag_51:\n      mload(0x40)\n      tag_54\n      swap2\n      swap1\n      tag_27\n      jump\t// in\n    tag_54:\n      mload(0x40)\n      dup1\n      swap2\n      sub\n      swap1\n      return\n        /* \"InitialValue.sol\":927:952  bool public _bool2 = true */\n    tag_13:\n      tag_55\n      tag_56\n      jump\t// in\n    tag_55:\n      mload(0x40)\n      tag_57\n      swap2\n      swap1\n      tag_50\n      jump\t// in\n    tag_57:\n      mload(0x40)\n      dup1\n      swap2\n      sub\n      swap1\n      return\n        /* \"InitialValue.sol\":170:185  int public _int */\n    tag_14:\n      tag_58\n      tag_59\n      jump\t// in\n    tag_58:\n      mload(0x40)\n      tag_60\n      swap2\n      swap1\n      tag_61\n      jump\t// in\n    tag_60:\n      mload(0x40)\n      dup1\n      swap2\n      sub\n      swap1\n      return\n        /* \"InitialValue.sol\":619:646  uint[] public _dynamicArray */\n    tag_15:\n      tag_62\n      0x04\n      dup1\n      calldatasize\n      sub\n      dup2\n      add\n      swap1\n      tag_63\n      swap2\n      swap1\n      tag_20\n      jump\t// in\n    tag_63:\n      tag_64\n      jump\t// in\n    tag_62:\n      mload(0x40)\n      tag_65\n      swap2\n      swap1\n      tag_23\n      jump\t// in\n    tag_65:\n      mload(0x40)\n      dup1\n      swap2\n      sub\n      swap1\n      return\n        /* \"InitialValue.sol\":520:547  uint[8] public _staticArray */\n    tag_21:\n      0x05\n      dup2\n      0x08\n      dup2\n      lt\n      tag_66\n      jumpi\n      0x00\n      dup1\n      revert\n    tag_66:\n      add\n      0x00\n      swap2\n      pop\n      swap1\n      pop\n      sload\n      dup2\n      jump\t// out\n        /* \"InitialValue.sol\":224:247  address public _address */\n    tag_25:\n      0x04\n      0x00\n      swap1\n      sload\n      swap1\n      0x0100\n      exp\n      swap1\n      div\n      0xffffffffffffffffffffffffffffffffffffffff\n      and\n      dup2\n      jump\t// out\n        /* \"InitialValue.sol\":196:213  uint public _uint */\n    tag_29:\n      sload(0x03)\n      dup2\n      jump\t// out\n        /* \"InitialValue.sol\":338:360  ActionSet public _enum */\n    tag_32:\n      0x04\n      0x14\n      swap1\n      sload\n      swap1\n      0x0100\n      exp\n      swap1\n      div\n      0xff\n      and\n      dup2\n      jump\t// out\n        /* \"InitialValue.sol\":875:897  Student public student */\n    tag_36:\n      0x0f\n      dup1\n      0x00\n      add\n      sload\n      swap1\n      dup1\n      0x01\n      add\n      sload\n      swap1\n      pop\n      dup3\n      jump\t// out\n        /* \"InitialValue.sol\":442:466  function fe() external{} */\n    tag_40:\n      jump\t// out\n        /* \"InitialValue.sol\":959:1057  function d() external {... */\n    tag_42:\n        /* \"InitialValue.sol\":998:1004  _bool2 */\n      0x11\n      0x00\n        /* \"InitialValue.sol\":991:1004  delete _bool2 */\n      0x0100\n      exp\n      dup2\n      sload\n      swap1\n      0xff\n      mul\n      not\n      and\n      swap1\n      sstore\n        /* \"InitialValue.sol\":959:1057  function d() external {... */\n      jump\t// out\n        /* \"InitialValue.sol\":137:158  string public _string */\n    tag_44:\n      0x01\n      dup1\n      sload\n      tag_70\n      swap1\n      tag_71\n      jump\t// in\n    tag_70:\n      dup1\n      0x1f\n      add\n      0x20\n      dup1\n      swap2\n      div\n      mul\n      0x20\n      add\n      mload(0x40)\n      swap1\n      dup2\n      add\n      0x40\n      mstore\n      dup1\n      swap3\n      swap2\n      swap1\n      dup2\n      dup2\n      mstore\n      0x20\n      add\n      dup3\n      dup1\n      sload\n      tag_72\n      swap1\n      tag_71\n      jump\t// in\n    tag_72:\n      dup1\n      iszero\n      tag_73\n      jumpi\n      dup1\n      0x1f\n      lt\n      tag_74\n      jumpi\n      0x0100\n      dup1\n      dup4\n      sload\n      div\n      mul\n      dup4\n      mstore\n      swap2\n      0x20\n      add\n      swap2\n      jump(tag_73)\n    tag_74:\n      dup3\n      add\n      swap2\n      swap1\n      0x00\n      mstore\n      keccak256(0x00, 0x20)\n      swap1\n    tag_75:\n      dup2\n      sload\n      dup2\n      mstore\n      swap1\n      0x01\n      add\n      swap1\n      0x20\n      add\n      dup1\n      dup4\n      gt\n      tag_75\n      jumpi\n      dup3\n      swap1\n      sub\n      0x1f\n      and\n      dup3\n      add\n      swap2\n    tag_73:\n      pop\n      pop\n      pop\n      pop\n      pop\n      dup2\n      jump\t// out\n        /* \"InitialValue.sol\":105:122  bool public _bool */\n    tag_48:\n      0x00\n      dup1\n      sload\n      swap1\n      0x0100\n      exp\n      swap1\n      div\n      0xff\n      and\n      dup2\n      jump\t// out\n        /* \"InitialValue.sol\":660:700  mapping(uint => address) public _mapping */\n    tag_53:\n      mstore(0x20, 0x0e)\n      dup1\n      0x00\n      mstore\n      keccak256(0x00, 0x40)\n      0x00\n      swap2\n      pop\n      sload\n      swap1\n      0x0100\n      exp\n      swap1\n      div\n      0xffffffffffffffffffffffffffffffffffffffff\n      and\n      dup2\n      jump\t// out\n        /* \"InitialValue.sol\":927:952  bool public _bool2 = true */\n    tag_56:\n      0x11\n      0x00\n      swap1\n      sload\n      swap1\n      0x0100\n      exp\n      swap1\n      div\n      0xff\n      and\n      dup2\n      jump\t// out\n        /* \"InitialValue.sol\":170:185  int public _int */\n    tag_59:\n      sload(0x02)\n      dup2\n      jump\t// out\n        /* \"InitialValue.sol\":619:646  uint[] public _dynamicArray */\n    tag_64:\n      0x0d\n      dup2\n      dup2\n      sload\n      dup2\n      lt\n      tag_76\n      jumpi\n      0x00\n      dup1\n      revert\n    tag_76:\n      swap1\n      0x00\n      mstore\n      keccak256(0x00, 0x20)\n      add\n      0x00\n      swap2\n      pop\n      swap1\n      pop\n      sload\n      dup2\n      jump\t// out\n        /* \"#utility.yul\":88:205   */\n    tag_79:\n        /* \"#utility.yul\":197:198   */\n      0x00\n        /* \"#utility.yul\":194:195   */\n      dup1\n        /* \"#utility.yul\":187:199   */\n      revert\n        /* \"#utility.yul\":334:411   */\n    tag_81:\n        /* \"#utility.yul\":371:378   */\n      0x00\n        /* \"#utility.yul\":400:405   */\n      dup2\n        /* \"#utility.yul\":389:405   */\n      swap1\n      pop\n        /* \"#utility.yul\":334:411   */\n      swap2\n      swap1\n      pop\n      jump\t// out\n        /* \"#utility.yul\":417:539   */\n    tag_82:\n        /* \"#utility.yul\":490:514   */\n      tag_109\n        /* \"#utility.yul\":508:513   */\n      dup2\n        /* \"#utility.yul\":490:514   */\n      tag_81\n      jump\t// in\n    tag_109:\n        /* \"#utility.yul\":483:488   */\n      dup2\n        /* \"#utility.yul\":480:515   */\n      eq\n        /* \"#utility.yul\":470:533   */\n      tag_110\n      jumpi\n        /* \"#utility.yul\":529:530   */\n      0x00\n        /* \"#utility.yul\":526:527   */\n      dup1\n        /* \"#utility.yul\":519:531   */\n      revert\n        /* \"#utility.yul\":470:533   */\n    tag_110:\n        /* \"#utility.yul\":417:539   */\n      pop\n      jump\t// out\n        /* \"#utility.yul\":545:684   */\n    tag_83:\n        /* \"#utility.yul\":591:596   */\n      0x00\n        /* \"#utility.yul\":629:635   */\n      dup2\n        /* \"#utility.yul\":616:636   */\n      calldataload\n        /* \"#utility.yul\":607:636   */\n      swap1\n      pop\n        /* \"#utility.yul\":645:678   */\n      tag_112\n        /* \"#utility.yul\":672:677   */\n      dup2\n        /* \"#utility.yul\":645:678   */\n      tag_82\n      jump\t// in\n    tag_112:\n        /* \"#utility.yul\":545:684   */\n      swap3\n      swap2\n      pop\n      pop\n      jump\t// out\n        /* \"#utility.yul\":690:1019   */\n    tag_20:\n        /* \"#utility.yul\":749:755   */\n      0x00\n        /* \"#utility.yul\":798:800   */\n      0x20\n        /* \"#utility.yul\":786:795   */\n      dup3\n        /* \"#utility.yul\":777:784   */\n      dup5\n        /* \"#utility.yul\":773:796   */\n      sub\n        /* \"#utility.yul\":769:801   */\n      slt\n        /* \"#utility.yul\":766:885   */\n      iszero\n      tag_114\n      jumpi\n        /* \"#utility.yul\":804:883   */\n      tag_115\n      tag_79\n      jump\t// in\n    tag_115:\n        /* \"#utility.yul\":766:885   */\n    tag_114:\n        /* \"#utility.yul\":924:925   */\n      0x00\n        /* \"#utility.yul\":949:1002   */\n      tag_116\n        /* \"#utility.yul\":994:1001   */\n      dup5\n        /* \"#utility.yul\":985:991   */\n      dup3\n        /* \"#utility.yul\":974:983   */\n      dup6\n        /* \"#utility.yul\":970:992   */\n      add\n        /* \"#utility.yul\":949:1002   */\n      tag_83\n      jump\t// in\n    tag_116:\n        /* \"#utility.yul\":939:1002   */\n      swap2\n      pop\n        /* \"#utility.yul\":895:1012   */\n      pop\n        /* \"#utility.yul\":690:1019   */\n      swap3\n      swap2\n      pop\n      pop\n      jump\t// out\n        /* \"#utility.yul\":1025:1143   */\n    tag_84:\n        /* \"#utility.yul\":1112:1136   */\n      tag_118\n        /* \"#utility.yul\":1130:1135   */\n      dup2\n        /* \"#utility.yul\":1112:1136   */\n      tag_81\n      jump\t// in\n    tag_118:\n        /* \"#utility.yul\":1107:1110   */\n      dup3\n        /* \"#utility.yul\":1100:1137   */\n      mstore\n        /* \"#utility.yul\":1025:1143   */\n      pop\n      pop\n      jump\t// out\n        /* \"#utility.yul\":1149:1371   */\n    tag_23:\n        /* \"#utility.yul\":1242:1246   */\n      0x00\n        /* \"#utility.yul\":1280:1282   */\n      0x20\n        /* \"#utility.yul\":1269:1278   */\n      dup3\n        /* \"#utility.yul\":1265:1283   */\n      add\n        /* \"#utility.yul\":1257:1283   */\n      swap1\n      pop\n        /* \"#utility.yul\":1293:1364   */\n      tag_120\n        /* \"#utility.yul\":1361:1362   */\n      0x00\n        /* \"#utility.yul\":1350:1359   */\n      dup4\n        /* \"#utility.yul\":1346:1363   */\n      add\n        /* \"#utility.yul\":1337:1343   */\n      dup5\n        /* \"#utility.yul\":1293:1364   */\n      tag_84\n      jump\t// in\n    tag_120:\n        /* \"#utility.yul\":1149:1371   */\n      swap3\n      swap2\n      pop\n      pop\n      jump\t// out\n        /* \"#utility.yul\":1377:1503   */\n    tag_85:\n        /* \"#utility.yul\":1414:1421   */\n      0x00\n        /* \"#utility.yul\":1454:1496   */\n      0xffffffffffffffffffffffffffffffffffffffff\n        /* \"#utility.yul\":1447:1452   */\n      dup3\n        /* \"#utility.yul\":1443:1497   */\n      and\n        /* \"#utility.yul\":1432:1497   */\n      swap1\n      pop\n        /* \"#utility.yul\":1377:1503   */\n      swap2\n      swap1\n      pop\n      jump\t// out\n        /* \"#utility.yul\":1509:1605   */\n    tag_86:\n        /* \"#utility.yul\":1546:1553   */\n      0x00\n        /* \"#utility.yul\":1575:1599   */\n      tag_123\n        /* \"#utility.yul\":1593:1598   */\n      dup3\n        /* \"#utility.yul\":1575:1599   */\n      tag_85\n      jump\t// in\n    tag_123:\n        /* \"#utility.yul\":1564:1599   */\n      swap1\n      pop\n        /* \"#utility.yul\":1509:1605   */\n      swap2\n      swap1\n      pop\n      jump\t// out\n        /* \"#utility.yul\":1611:1729   */\n    tag_87:\n        /* \"#utility.yul\":1698:1722   */\n      tag_125\n        /* \"#utility.yul\":1716:1721   */\n      dup2\n        /* \"#utility.yul\":1698:1722   */\n      tag_86\n      jump\t// in\n    tag_125:\n        /* \"#utility.yul\":1693:1696   */\n      dup3\n        /* \"#utility.yul\":1686:1723   */\n      mstore\n        /* \"#utility.yul\":1611:1729   */\n      pop\n      pop\n      jump\t// out\n        /* \"#utility.yul\":1735:1957   */\n    tag_27:\n        /* \"#utility.yul\":1828:1832   */\n      0x00\n        /* \"#utility.yul\":1866:1868   */\n      0x20\n        /* \"#utility.yul\":1855:1864   */\n      dup3\n        /* \"#utility.yul\":1851:1869   */\n      add\n        /* \"#utility.yul\":1843:1869   */\n      swap1\n      pop\n        /* \"#utility.yul\":1879:1950   */\n      tag_127\n        /* \"#utility.yul\":1947:1948   */\n      0x00\n        /* \"#utility.yul\":1936:1945   */\n      dup4\n        /* \"#utility.yul\":1932:1949   */\n      add\n        /* \"#utility.yul\":1923:1929   */\n      dup5\n        /* \"#utility.yul\":1879:1950   */\n      tag_87\n      jump\t// in\n    tag_127:\n        /* \"#utility.yul\":1735:1957   */\n      swap3\n      swap2\n      pop\n      pop\n      jump\t// out\n        /* \"#utility.yul\":1963:2143   */\n    tag_88:\n        /* \"#utility.yul\":2011:2088   */\n      0x4e487b7100000000000000000000000000000000000000000000000000000000\n        /* \"#utility.yul\":2008:2009   */\n      0x00\n        /* \"#utility.yul\":2001:2089   */\n      mstore\n        /* \"#utility.yul\":2108:2112   */\n      0x21\n        /* \"#utility.yul\":2105:2106   */\n      0x04\n        /* \"#utility.yul\":2098:2113   */\n      mstore\n        /* \"#utility.yul\":2132:2136   */\n      0x24\n        /* \"#utility.yul\":2129:2130   */\n      0x00\n        /* \"#utility.yul\":2122:2137   */\n      revert\n        /* \"#utility.yul\":2149:2266   */\n    tag_89:\n        /* \"#utility.yul\":2234:2235   */\n      0x03\n        /* \"#utility.yul\":2227:2232   */\n      dup2\n        /* \"#utility.yul\":2224:2236   */\n      lt\n        /* \"#utility.yul\":2214:2260   */\n      tag_130\n      jumpi\n        /* \"#utility.yul\":2240:2258   */\n      tag_131\n      tag_88\n      jump\t// in\n    tag_131:\n        /* \"#utility.yul\":2214:2260   */\n    tag_130:\n        /* \"#utility.yul\":2149:2266   */\n      pop\n      jump\t// out\n        /* \"#utility.yul\":2272:2407   */\n    tag_90:\n        /* \"#utility.yul\":2321:2328   */\n      0x00\n        /* \"#utility.yul\":2350:2355   */\n      dup2\n        /* \"#utility.yul\":2339:2355   */\n      swap1\n      pop\n        /* \"#utility.yul\":2356:2401   */\n      tag_133\n        /* \"#utility.yul\":2395:2400   */\n      dup3\n        /* \"#utility.yul\":2356:2401   */\n      tag_89\n      jump\t// in\n    tag_133:\n        /* \"#utility.yul\":2272:2407   */\n      swap2\n      swap1\n      pop\n      jump\t// out\n        /* \"#utility.yul\":2413:2548   */\n    tag_91:\n        /* \"#utility.yul\":2473:2482   */\n      0x00\n        /* \"#utility.yul\":2506:2542   */\n      tag_135\n        /* \"#utility.yul\":2536:2541   */\n      dup3\n        /* \"#utility.yul\":2506:2542   */\n      tag_90\n      jump\t// in\n    tag_135:\n        /* \"#utility.yul\":2493:2542   */\n      swap1\n      pop\n        /* \"#utility.yul\":2413:2548   */\n      swap2\n      swap1\n      pop\n      jump\t// out\n        /* \"#utility.yul\":2554:2705   */\n    tag_92:\n        /* \"#utility.yul\":2651:2698   */\n      tag_137\n        /* \"#utility.yul\":2692:2697   */\n      dup2\n        /* \"#utility.yul\":2651:2698   */\n      tag_91\n      jump\t// in\n    tag_137:\n        /* \"#utility.yul\":2646:2649   */\n      dup3\n        /* \"#utility.yul\":2639:2699   */\n      mstore\n        /* \"#utility.yul\":2554:2705   */\n      pop\n      pop\n      jump\t// out\n        /* \"#utility.yul\":2711:2953   */\n    tag_34:\n        /* \"#utility.yul\":2814:2818   */\n      0x00\n        /* \"#utility.yul\":2852:2854   */\n      0x20\n        /* \"#utility.yul\":2841:2850   */\n      dup3\n        /* \"#utility.yul\":2837:2855   */\n      add\n        /* \"#utility.yul\":2829:2855   */\n      swap1\n      pop\n        /* \"#utility.yul\":2865:2946   */\n      tag_139\n        /* \"#utility.yul\":2943:2944   */\n      0x00\n        /* \"#utility.yul\":2932:2941   */\n      dup4\n        /* \"#utility.yul\":2928:2945   */\n      add\n        /* \"#utility.yul\":2919:2925   */\n      dup5\n        /* \"#utility.yul\":2865:2946   */\n      tag_92\n      jump\t// in\n    tag_139:\n        /* \"#utility.yul\":2711:2953   */\n      swap3\n      swap2\n      pop\n      pop\n      jump\t// out\n        /* \"#utility.yul\":2959:3291   */\n    tag_38:\n        /* \"#utility.yul\":3080:3084   */\n      0x00\n        /* \"#utility.yul\":3118:3120   */\n      0x40\n        /* \"#utility.yul\":3107:3116   */\n      dup3\n        /* \"#utility.yul\":3103:3121   */\n      add\n        /* \"#utility.yul\":3095:3121   */\n      swap1\n      pop\n        /* \"#utility.yul\":3131:3202   */\n      tag_141\n        /* \"#utility.yul\":3199:3200   */\n      0x00\n        /* \"#utility.yul\":3188:3197   */\n      dup4\n        /* \"#utility.yul\":3184:3201   */\n      add\n        /* \"#utility.yul\":3175:3181   */\n      dup6\n        /* \"#utility.yul\":3131:3202   */\n      tag_84\n      jump\t// in\n    tag_141:\n        /* \"#utility.yul\":3212:3284   */\n      tag_142\n        /* \"#utility.yul\":3280:3282   */\n      0x20\n        /* \"#utility.yul\":3269:3278   */\n      dup4\n        /* \"#utility.yul\":3265:3283   */\n      add\n        /* \"#utility.yul\":3256:3262   */\n      dup5\n        /* \"#utility.yul\":3212:3284   */\n      tag_84\n      jump\t// in\n    tag_142:\n        /* \"#utility.yul\":2959:3291   */\n      swap4\n      swap3\n      pop\n      pop\n      pop\n      jump\t// out\n        /* \"#utility.yul\":3297:3396   */\n    tag_93:\n        /* \"#utility.yul\":3349:3355   */\n      0x00\n        /* \"#utility.yul\":3383:3388   */\n      dup2\n        /* \"#utility.yul\":3377:3389   */\n      mload\n        /* \"#utility.yul\":3367:3389   */\n      swap1\n      pop\n        /* \"#utility.yul\":3297:3396   */\n      swap2\n      swap1\n      pop\n      jump\t// out\n        /* \"#utility.yul\":3402:3571   */\n    tag_94:\n        /* \"#utility.yul\":3486:3497   */\n      0x00\n        /* \"#utility.yul\":3520:3526   */\n      dup3\n        /* \"#utility.yul\":3515:3518   */\n      dup3\n        /* \"#utility.yul\":3508:3527   */\n      mstore\n        /* \"#utility.yul\":3560:3564   */\n      0x20\n        /* \"#utility.yul\":3555:3558   */\n      dup3\n        /* \"#utility.yul\":3551:3565   */\n      add\n        /* \"#utility.yul\":3536:3565   */\n      swap1\n      pop\n        /* \"#utility.yul\":3402:3571   */\n      swap3\n      swap2\n      pop\n      pop\n      jump\t// out\n        /* \"#utility.yul\":3577:3823   */\n    tag_95:\n        /* \"#utility.yul\":3658:3659   */\n      0x00\n        /* \"#utility.yul\":3668:3781   */\n    tag_146:\n        /* \"#utility.yul\":3682:3688   */\n      dup4\n        /* \"#utility.yul\":3679:3680   */\n      dup2\n        /* \"#utility.yul\":3676:3689   */\n      lt\n        /* \"#utility.yul\":3668:3781   */\n      iszero\n      tag_148\n      jumpi\n        /* \"#utility.yul\":3767:3768   */\n      dup1\n        /* \"#utility.yul\":3762:3765   */\n      dup3\n        /* \"#utility.yul\":3758:3769   */\n      add\n        /* \"#utility.yul\":3752:3770   */\n      mload\n        /* \"#utility.yul\":3748:3749   */\n      dup2\n        /* \"#utility.yul\":3743:3746   */\n      dup5\n        /* \"#utility.yul\":3739:3750   */\n      add\n        /* \"#utility.yul\":3732:3771   */\n      mstore\n        /* \"#utility.yul\":3704:3706   */\n      0x20\n        /* \"#utility.yul\":3701:3702   */\n      dup2\n        /* \"#utility.yul\":3697:3707   */\n      add\n        /* \"#utility.yul\":3692:3707   */\n      swap1\n      pop\n        /* \"#utility.yul\":3668:3781   */\n      jump(tag_146)\n    tag_148:\n        /* \"#utility.yul\":3815:3816   */\n      0x00\n        /* \"#utility.yul\":3806:3812   */\n      dup5\n        /* \"#utility.yul\":3801:3804   */\n      dup5\n        /* \"#utility.yul\":3797:3813   */\n      add\n        /* \"#utility.yul\":3790:3817   */\n      mstore\n        /* \"#utility.yul\":3639:3823   */\n      pop\n        /* \"#utility.yul\":3577:3823   */\n      pop\n      pop\n      pop\n      jump\t// out\n        /* \"#utility.yul\":3829:3931   */\n    tag_96:\n        /* \"#utility.yul\":3870:3876   */\n      0x00\n        /* \"#utility.yul\":3921:3923   */\n      0x1f\n        /* \"#utility.yul\":3917:3924   */\n      not\n        /* \"#utility.yul\":3912:3914   */\n      0x1f\n        /* \"#utility.yul\":3905:3910   */\n      dup4\n        /* \"#utility.yul\":3901:3915   */\n      add\n        /* \"#utility.yul\":3897:3925   */\n      and\n        /* \"#utility.yul\":3887:3925   */\n      swap1\n      pop\n        /* \"#utility.yul\":3829:3931   */\n      swap2\n      swap1\n      pop\n      jump\t// out\n        /* \"#utility.yul\":3937:4314   */\n    tag_97:\n        /* \"#utility.yul\":4025:4028   */\n      0x00\n        /* \"#utility.yul\":4053:4092   */\n      tag_151\n        /* \"#utility.yul\":4086:4091   */\n      dup3\n        /* \"#utility.yul\":4053:4092   */\n      tag_93\n      jump\t// in\n    tag_151:\n        /* \"#utility.yul\":4108:4179   */\n      tag_152\n        /* \"#utility.yul\":4172:4178   */\n      dup2\n        /* \"#utility.yul\":4167:4170   */\n      dup6\n        /* \"#utility.yul\":4108:4179   */\n      tag_94\n      jump\t// in\n    tag_152:\n        /* \"#utility.yul\":4101:4179   */\n      swap4\n      pop\n        /* \"#utility.yul\":4188:4253   */\n      tag_153\n        /* \"#utility.yul\":4246:4252   */\n      dup2\n        /* \"#utility.yul\":4241:4244   */\n      dup6\n        /* \"#utility.yul\":4234:4238   */\n      0x20\n        /* \"#utility.yul\":4227:4232   */\n      dup7\n        /* \"#utility.yul\":4223:4239   */\n      add\n        /* \"#utility.yul\":4188:4253   */\n      tag_95\n      jump\t// in\n    tag_153:\n        /* \"#utility.yul\":4278:4307   */\n      tag_154\n        /* \"#utility.yul\":4300:4306   */\n      dup2\n        /* \"#utility.yul\":4278:4307   */\n      tag_96\n      jump\t// in\n    tag_154:\n        /* \"#utility.yul\":4273:4276   */\n      dup5\n        /* \"#utility.yul\":4269:4308   */\n      add\n        /* \"#utility.yul\":4262:4308   */\n      swap2\n      pop\n        /* \"#utility.yul\":4029:4314   */\n      pop\n        /* \"#utility.yul\":3937:4314   */\n      swap3\n      swap2\n      pop\n      pop\n      jump\t// out\n        /* \"#utility.yul\":4320:4633   */\n    tag_46:\n        /* \"#utility.yul\":4433:4437   */\n      0x00\n        /* \"#utility.yul\":4471:4473   */\n      0x20\n        /* \"#utility.yul\":4460:4469   */\n      dup3\n        /* \"#utility.yul\":4456:4474   */\n      add\n        /* \"#utility.yul\":4448:4474   */\n      swap1\n      pop\n        /* \"#utility.yul\":4520:4529   */\n      dup2\n        /* \"#utility.yul\":4514:4518   */\n      dup2\n        /* \"#utility.yul\":4510:4530   */\n      sub\n        /* \"#utility.yul\":4506:4507   */\n      0x00\n        /* \"#utility.yul\":4495:4504   */\n      dup4\n        /* \"#utility.yul\":4491:4508   */\n      add\n        /* \"#utility.yul\":4484:4531   */\n      mstore\n        /* \"#utility.yul\":4548:4626   */\n      tag_156\n        /* \"#utility.yul\":4621:4625   */\n      dup2\n        /* \"#utility.yul\":4612:4618   */\n      dup5\n        /* \"#utility.yul\":4548:4626   */\n      tag_97\n      jump\t// in\n    tag_156:\n        /* \"#utility.yul\":4540:4626   */\n      swap1\n      pop\n        /* \"#utility.yul\":4320:4633   */\n      swap3\n      swap2\n      pop\n      pop\n      jump\t// out\n        /* \"#utility.yul\":4639:4729   */\n    tag_98:\n        /* \"#utility.yul\":4673:4680   */\n      0x00\n        /* \"#utility.yul\":4716:4721   */\n      dup2\n        /* \"#utility.yul\":4709:4722   */\n      iszero\n        /* \"#utility.yul\":4702:4723   */\n      iszero\n        /* \"#utility.yul\":4691:4723   */\n      swap1\n      pop\n        /* \"#utility.yul\":4639:4729   */\n      swap2\n      swap1\n      pop\n      jump\t// out\n        /* \"#utility.yul\":4735:4844   */\n    tag_99:\n        /* \"#utility.yul\":4816:4837   */\n      tag_159\n        /* \"#utility.yul\":4831:4836   */\n      dup2\n        /* \"#utility.yul\":4816:4837   */\n      tag_98\n      jump\t// in\n    tag_159:\n        /* \"#utility.yul\":4811:4814   */\n      dup3\n        /* \"#utility.yul\":4804:4838   */\n      mstore\n        /* \"#utility.yul\":4735:4844   */\n      pop\n      pop\n      jump\t// out\n        /* \"#utility.yul\":4850:5060   */\n    tag_50:\n        /* \"#utility.yul\":4937:4941   */\n      0x00\n        /* \"#utility.yul\":4975:4977   */\n      0x20\n        /* \"#utility.yul\":4964:4973   */\n      dup3\n        /* \"#utility.yul\":4960:4978   */\n      add\n        /* \"#utility.yul\":4952:4978   */\n      swap1\n      pop\n        /* \"#utility.yul\":4988:5053   */\n      tag_161\n        /* \"#utility.yul\":5050:5051   */\n      0x00\n        /* \"#utility.yul\":5039:5048   */\n      dup4\n        /* \"#utility.yul\":5035:5052   */\n      add\n        /* \"#utility.yul\":5026:5032   */\n      dup5\n        /* \"#utility.yul\":4988:5053   */\n      tag_99\n      jump\t// in\n    tag_161:\n        /* \"#utility.yul\":4850:5060   */\n      swap3\n      swap2\n      pop\n      pop\n      jump\t// out\n        /* \"#utility.yul\":5066:5142   */\n    tag_100:\n        /* \"#utility.yul\":5102:5109   */\n      0x00\n        /* \"#utility.yul\":5131:5136   */\n      dup2\n        /* \"#utility.yul\":5120:5136   */\n      swap1\n      pop\n        /* \"#utility.yul\":5066:5142   */\n      swap2\n      swap1\n      pop\n      jump\t// out\n        /* \"#utility.yul\":5148:5263   */\n    tag_101:\n        /* \"#utility.yul\":5233:5256   */\n      tag_164\n        /* \"#utility.yul\":5250:5255   */\n      dup2\n        /* \"#utility.yul\":5233:5256   */\n      tag_100\n      jump\t// in\n    tag_164:\n        /* \"#utility.yul\":5228:5231   */\n      dup3\n        /* \"#utility.yul\":5221:5257   */\n      mstore\n        /* \"#utility.yul\":5148:5263   */\n      pop\n      pop\n      jump\t// out\n        /* \"#utility.yul\":5269:5487   */\n    tag_61:\n        /* \"#utility.yul\":5360:5364   */\n      0x00\n        /* \"#utility.yul\":5398:5400   */\n      0x20\n        /* \"#utility.yul\":5387:5396   */\n      dup3\n        /* \"#utility.yul\":5383:5401   */\n      add\n        /* \"#utility.yul\":5375:5401   */\n      swap1\n      pop\n        /* \"#utility.yul\":5411:5480   */\n      tag_166\n        /* \"#utility.yul\":5477:5478   */\n      0x00\n        /* \"#utility.yul\":5466:5475   */\n      dup4\n        /* \"#utility.yul\":5462:5479   */\n      add\n        /* \"#utility.yul\":5453:5459   */\n      dup5\n        /* \"#utility.yul\":5411:5480   */\n      tag_101\n      jump\t// in\n    tag_166:\n        /* \"#utility.yul\":5269:5487   */\n      swap3\n      swap2\n      pop\n      pop\n      jump\t// out\n        /* \"#utility.yul\":5493:5673   */\n    tag_102:\n        /* \"#utility.yul\":5541:5618   */\n      0x4e487b7100000000000000000000000000000000000000000000000000000000\n        /* \"#utility.yul\":5538:5539   */\n      0x00\n        /* \"#utility.yul\":5531:5619   */\n      mstore\n        /* \"#utility.yul\":5638:5642   */\n      0x22\n        /* \"#utility.yul\":5635:5636   */\n      0x04\n        /* \"#utility.yul\":5628:5643   */\n      mstore\n        /* \"#utility.yul\":5662:5666   */\n      0x24\n        /* \"#utility.yul\":5659:5660   */\n      0x00\n        /* \"#utility.yul\":5652:5667   */\n      revert\n        /* \"#utility.yul\":5679:5999   */\n    tag_71:\n        /* \"#utility.yul\":5723:5729   */\n      0x00\n        /* \"#utility.yul\":5760:5761   */\n      0x02\n        /* \"#utility.yul\":5754:5758   */\n      dup3\n        /* \"#utility.yul\":5750:5762   */\n      div\n        /* \"#utility.yul\":5740:5762   */\n      swap1\n      pop\n        /* \"#utility.yul\":5807:5808   */\n      0x01\n        /* \"#utility.yul\":5801:5805   */\n      dup3\n        /* \"#utility.yul\":5797:5809   */\n      and\n        /* \"#utility.yul\":5828:5846   */\n      dup1\n        /* \"#utility.yul\":5818:5899   */\n      tag_169\n      jumpi\n        /* \"#utility.yul\":5884:5888   */\n      0x7f\n        /* \"#utility.yul\":5876:5882   */\n      dup3\n        /* \"#utility.yul\":5872:5889   */\n      and\n        /* \"#utility.yul\":5862:5889   */\n      swap2\n      pop\n        /* \"#utility.yul\":5818:5899   */\n    tag_169:\n        /* \"#utility.yul\":5946:5948   */\n      0x20\n        /* \"#utility.yul\":5938:5944   */\n      dup3\n        /* \"#utility.yul\":5935:5949   */\n      lt\n        /* \"#utility.yul\":5915:5933   */\n      dup2\n        /* \"#utility.yul\":5912:5950   */\n      sub\n        /* \"#utility.yul\":5909:5993   */\n      tag_170\n      jumpi\n        /* \"#utility.yul\":5965:5983   */\n      tag_171\n      tag_102\n      jump\t// in\n    tag_171:\n        /* \"#utility.yul\":5909:5993   */\n    tag_170:\n        /* \"#utility.yul\":5730:5999   */\n      pop\n        /* \"#utility.yul\":5679:5999   */\n      swap2\n      swap1\n      pop\n      jump\t// out\n\n    auxdata: 0xa2646970667358221220b1bf4accdc37b8ba1dec2e9313e62b5e94047cfd90d68482de6fa45fa8d1ffb764736f6c63430008160033\n}\n",
				"bytecode": {
					"linkReferences": {},
					"object": "6080604052600160115f6101000a81548160ff021916908315150217905550348015610029575f80fd5b5061071d806100375f395ff3fe608060405234801561000f575f80fd5b50600436106100cd575f3560e01c80638a054ac21161008a578063a2ba3ee411610064578063a2ba3ee4146101ca578063a2e7fe8a146101fa578063af45869e14610218578063ea8e4fd114610236576100cd565b80638a054ac2146101845780639b267f091461018e5780639e6ba9c2146101ac576100cd565b806312b7b142146100d157806318bad217146101015780632543135b1461011f57806330c0826f1461013d578063699450e81461015b57806386ed6eac1461017a575b5f80fd5b6100eb60048036038101906100e6919061041e565b610266565b6040516100f89190610458565b60405180910390f35b61010961027f565b60405161011691906104b0565b60405180910390f35b6101276102a4565b6040516101349190610458565b60405180910390f35b6101456102aa565b604051610152919061053c565b60405180910390f35b6101636102bd565b604051610171929190610555565b60405180910390f35b6101826102ce565b005b61018c6102d0565b005b6101966102e3565b6040516101a39190610606565b60405180910390f35b6101b461036f565b6040516101c19190610640565b60405180910390f35b6101e460048036038101906101df919061041e565b61037f565b6040516101f191906104b0565b60405180910390f35b6102026103af565b60405161020f9190610640565b60405180910390f35b6102206103c1565b60405161022d9190610671565b60405180910390f35b610250600480360381019061024b919061041e565b6103c7565b60405161025d9190610458565b60405180910390f35b60058160088110610275575f80fd5b015f915090505481565b60045f9054906101000a900473ffffffffffffffffffffffffffffffffffffffff1681565b60035481565b600460149054906101000a900460ff1681565b600f805f0154908060010154905082565b565b60115f6101000a81549060ff0219169055565b600180546102f0906106b7565b80601f016020809104026020016040519081016040528092919081815260200182805461031c906106b7565b80156103675780601f1061033e57610100808354040283529160200191610367565b820191905f5260205f20905b81548152906001019060200180831161034a57829003601f168201915b505050505081565b5f8054906101000a900460ff1681565b600e602052805f5260405f205f915054906101000a900473ffffffffffffffffffffffffffffffffffffffff1681565b60115f9054906101000a900460ff1681565b60025481565b600d81815481106103d6575f80fd5b905f5260205f20015f915090505481565b5f80fd5b5f819050919050565b6103fd816103eb565b8114610407575f80fd5b50565b5f81359050610418816103f4565b92915050565b5f60208284031215610433576104326103e7565b5b5f6104408482850161040a565b91505092915050565b610452816103eb565b82525050565b5f60208201905061046b5f830184610449565b92915050565b5f73ffffffffffffffffffffffffffffffffffffffff82169050919050565b5f61049a82610471565b9050919050565b6104aa81610490565b82525050565b5f6020820190506104c35f8301846104a1565b92915050565b7f4e487b71000000000000000000000000000000000000000000000000000000005f52602160045260245ffd5b60038110610507576105066104c9565b5b50565b5f819050610517826104f6565b919050565b5f6105268261050a565b9050919050565b6105368161051c565b82525050565b5f60208201905061054f5f83018461052d565b92915050565b5f6040820190506105685f830185610449565b6105756020830184610449565b9392505050565b5f81519050919050565b5f82825260208201905092915050565b5f5b838110156105b3578082015181840152602081019050610598565b5f8484015250505050565b5f601f19601f8301169050919050565b5f6105d88261057c565b6105e28185610586565b93506105f2818560208601610596565b6105fb816105be565b840191505092915050565b5f6020820190508181035f83015261061e81846105ce565b905092915050565b5f8115159050919050565b61063a81610626565b82525050565b5f6020820190506106535f830184610631565b92915050565b5f819050919050565b61066b81610659565b82525050565b5f6020820190506106845f830184610662565b92915050565b7f4e487b71000000000000000000000000000000000000000000000000000000005f52602260045260245ffd5b5f60028204905060018216806106ce57607f821691505b6020821081036106e1576106e061068a565b5b5091905056fea2646970667358221220b1bf4accdc37b8ba1dec2e9313e62b5e94047cfd90d68482de6fa45fa8d1ffb764736f6c63430008160033",
					"opcodes": "PUSH1 0x80 PUSH1 0x40 MSTORE PUSH1 0x1 PUSH1 0x11 PUSH0 PUSH2 0x100 EXP DUP2 SLOAD DUP2 PUSH1 0xFF MUL NOT AND SWAP1 DUP4 ISZERO ISZERO MUL OR SWAP1 SSTORE POP CALLVALUE DUP1 ISZERO PUSH2 0x29 JUMPI PUSH0 DUP1 REVERT JUMPDEST POP PUSH2 0x71D DUP1 PUSH2 0x37 PUSH0 CODECOPY PUSH0 RETURN INVALID PUSH1 0x80 PUSH1 0x40 MSTORE CALLVALUE DUP1 ISZERO PUSH2 0xF JUMPI PUSH0 DUP1 REVERT JUMPDEST POP PUSH1 0x4 CALLDATASIZE LT PUSH2 0xCD JUMPI PUSH0 CALLDATALOAD PUSH1 0xE0 SHR DUP1 PUSH4 0x8A054AC2 GT PUSH2 0x8A JUMPI DUP1 PUSH4 0xA2BA3EE4 GT PUSH2 0x64 JUMPI DUP1 PUSH4 0xA2BA3EE4 EQ PUSH2 0x1CA JUMPI DUP1 PUSH4 0xA2E7FE8A EQ PUSH2 0x1FA JUMPI DUP1 PUSH4 0xAF45869E EQ PUSH2 0x218 JUMPI DUP1 PUSH4 0xEA8E4FD1 EQ PUSH2 0x236 JUMPI PUSH2 0xCD JUMP JUMPDEST DUP1 PUSH4 0x8A054AC2 EQ PUSH2 0x184 JUMPI DUP1 PUSH4 0x9B267F09 EQ PUSH2 0x18E JUMPI DUP1 PUSH4 0x9E6BA9C2 EQ PUSH2 0x1AC JUMPI PUSH2 0xCD JUMP JUMPDEST DUP1 PUSH4 0x12B7B142 EQ PUSH2 0xD1 JUMPI DUP1 PUSH4 0x18BAD217 EQ PUSH2 0x101 JUMPI DUP1 PUSH4 0x2543135B EQ PUSH2 0x11F JUMPI DUP1 PUSH4 0x30C0826F EQ PUSH2 0x13D JUMPI DUP1 PUSH4 0x699450E8 EQ PUSH2 0x15B JUMPI DUP1 PUSH4 0x86ED6EAC EQ PUSH2 0x17A JUMPI JUMPDEST PUSH0 DUP1 REVERT JUMPDEST PUSH2 0xEB PUSH1 0x4 DUP1 CALLDATASIZE SUB DUP2 ADD SWAP1 PUSH2 0xE6 SWAP2 SWAP1 PUSH2 0x41E JUMP JUMPDEST PUSH2 0x266 JUMP JUMPDEST PUSH1 0x40 MLOAD PUSH2 0xF8 SWAP2 SWAP1 PUSH2 0x458 JUMP JUMPDEST PUSH1 0x40 MLOAD DUP1 SWAP2 SUB SWAP1 RETURN JUMPDEST PUSH2 0x109 PUSH2 0x27F JUMP JUMPDEST PUSH1 0x40 MLOAD PUSH2 0x116 SWAP2 SWAP1 PUSH2 0x4B0 JUMP JUMPDEST PUSH1 0x40 MLOAD DUP1 SWAP2 SUB SWAP1 RETURN JUMPDEST PUSH2 0x127 PUSH2 0x2A4 JUMP JUMPDEST PUSH1 0x40 MLOAD PUSH2 0x134 SWAP2 SWAP1 PUSH2 0x458 JUMP JUMPDEST PUSH1 0x40 MLOAD DUP1 SWAP2 SUB SWAP1 RETURN JUMPDEST PUSH2 0x145 PUSH2 0x2AA JUMP JUMPDEST PUSH1 0x40 MLOAD PUSH2 0x152 SWAP2 SWAP1 PUSH2 0x53C JUMP JUMPDEST PUSH1 0x40 MLOAD DUP1 SWAP2 SUB SWAP1 RETURN JUMPDEST PUSH2 0x163 PUSH2 0x2BD JUMP JUMPDEST PUSH1 0x40 MLOAD PUSH2 0x171 SWAP3 SWAP2 SWAP1 PUSH2 0x555 JUMP JUMPDEST PUSH1 0x40 MLOAD DUP1 SWAP2 SUB SWAP1 RETURN JUMPDEST PUSH2 0x182 PUSH2 0x2CE JUMP JUMPDEST STOP JUMPDEST PUSH2 0x18C PUSH2 0x2D0 JUMP JUMPDEST STOP JUMPDEST PUSH2 0x196 PUSH2 0x2E3 JUMP JUMPDEST PUSH1 0x40 MLOAD PUSH2 0x1A3 SWAP2 SWAP1 PUSH2 0x606 JUMP JUMPDEST PUSH1 0x40 MLOAD DUP1 SWAP2 SUB SWAP1 RETURN JUMPDEST PUSH2 0x1B4 PUSH2 0x36F JUMP JUMPDEST PUSH1 0x40 MLOAD PUSH2 0x1C1 SWAP2 SWAP1 PUSH2 0x640 JUMP JUMPDEST PUSH1 0x40 MLOAD DUP1 SWAP2 SUB SWAP1 RETURN JUMPDEST PUSH2 0x1E4 PUSH1 0x4 DUP1 CALLDATASIZE SUB DUP2 ADD SWAP1 PUSH2 0x1DF SWAP2 SWAP1 PUSH2 0x41E JUMP JUMPDEST PUSH2 0x37F JUMP JUMPDEST PUSH1 0x40 MLOAD PUSH2 0x1F1 SWAP2 SWAP1 PUSH2 0x4B0 JUMP JUMPDEST PUSH1 0x40 MLOAD DUP1 SWAP2 SUB SWAP1 RETURN JUMPDEST PUSH2 0x202 PUSH2 0x3AF JUMP JUMPDEST PUSH1 0x40 MLOAD PUSH2 0x20F SWAP2 SWAP1 PUSH2 0x640 JUMP JUMPDEST PUSH1 0x40 MLOAD DUP1 SWAP2 SUB SWAP1 RETURN JUMPDEST PUSH2 0x220 PUSH2 0x3C1 JUMP JUMPDEST PUSH1 0x40 MLOAD PUSH2 0x22D SWAP2 SWAP1 PUSH2 0x671 JUMP JUMPDEST PUSH1 0x40 MLOAD DUP1 SWAP2 SUB SWAP1 RETURN JUMPDEST PUSH2 0x250 PUSH1 0x4 DUP1 CALLDATASIZE SUB DUP2 ADD SWAP1 PUSH2 0x24B SWAP2 SWAP1 PUSH2 0x41E JUMP JUMPDEST PUSH2 0x3C7 JUMP JUMPDEST PUSH1 0x40 MLOAD PUSH2 0x25D SWAP2 SWAP1 PUSH2 0x458 JUMP JUMPDEST PUSH1 0x40 MLOAD DUP1 SWAP2 SUB SWAP1 RETURN JUMPDEST PUSH1 0x5 DUP2 PUSH1 0x8 DUP2 LT PUSH2 0x275 JUMPI PUSH0 DUP1 REVERT JUMPDEST ADD PUSH0 SWAP2 POP SWAP1 POP SLOAD DUP2 JUMP JUMPDEST PUSH1 0x4 PUSH0 SWAP1 SLOAD SWAP1 PUSH2 0x100 EXP SWAP1 DIV PUSH20 0xFFFFFFFFFFFFFFFFFFFFFFFFFFFFFFFFFFFFFFFF AND DUP2 JUMP JUMPDEST PUSH1 0x3 SLOAD DUP2 JUMP JUMPDEST PUSH1 0x4 PUSH1 0x14 SWAP1 SLOAD SWAP1 PUSH2 0x100 EXP SWAP1 DIV PUSH1 0xFF AND DUP2 JUMP JUMPDEST PUSH1 0xF DUP1 PUSH0 ADD SLOAD SWAP1 DUP1 PUSH1 0x1 ADD SLOAD SWAP1 POP DUP3 JUMP JUMPDEST JUMP JUMPDEST PUSH1 0x11 PUSH0 PUSH2 0x100 EXP DUP2 SLOAD SWAP1 PUSH1 0xFF MUL NOT AND SWAP1 SSTORE JUMP JUMPDEST PUSH1 0x1 DUP1 SLOAD PUSH2 0x2F0 SWAP1 PUSH2 0x6B7 JUMP JUMPDEST DUP1 PUSH1 0x1F ADD PUSH1 0x20 DUP1 SWAP2 DIV MUL PUSH1 0x20 ADD PUSH1 0x40 MLOAD SWAP1 DUP2 ADD PUSH1 0x40 MSTORE DUP1 SWAP3 SWAP2 SWAP1 DUP2 DUP2 MSTORE PUSH1 0x20 ADD DUP3 DUP1 SLOAD PUSH2 0x31C SWAP1 PUSH2 0x6B7 JUMP JUMPDEST DUP1 ISZERO PUSH2 0x367 JUMPI DUP1 PUSH1 0x1F LT PUSH2 0x33E JUMPI PUSH2 0x100 DUP1 DUP4 SLOAD DIV MUL DUP4 MSTORE SWAP2 PUSH1 0x20 ADD SWAP2 PUSH2 0x367 JUMP JUMPDEST DUP3 ADD SWAP2 SWAP1 PUSH0 MSTORE PUSH1 0x20 PUSH0 KECCAK256 SWAP1 JUMPDEST DUP2 SLOAD DUP2 MSTORE SWAP1 PUSH1 0x1 ADD SWAP1 PUSH1 0x20 ADD DUP1 DUP4 GT PUSH2 0x34A JUMPI DUP3 SWAP1 SUB PUSH1 0x1F AND DUP3 ADD SWAP2 JUMPDEST POP POP POP POP POP DUP2 JUMP JUMPDEST PUSH0 DUP1 SLOAD SWAP1 PUSH2 0x100 EXP SWAP1 DIV PUSH1 0xFF AND DUP2 JUMP JUMPDEST PUSH1 0xE PUSH1 0x20 MSTORE DUP1 PUSH0 MSTORE PUSH1 0x40 PUSH0 KECCAK256 PUSH0 SWAP2 POP SLOAD SWAP1 PUSH2 0x100 EXP SWAP1 DIV PUSH20 0xFFFFFFFFFFFFFFFFFFFFFFFFFFFFFFFFFFFFFFFF AND DUP2 JUMP JUMPDEST PUSH1 0x11 PUSH0 SWAP1 SLOAD SWAP1 PUSH2 0x100 EXP SWAP1 DIV PUSH1 0xFF AND DUP2 JUMP JUMPDEST PUSH1 0x2 SLOAD DUP2 JUMP JUMPDEST PUSH1 0xD DUP2 DUP2 SLOAD DUP2 LT PUSH2 0x3D6 JUMPI PUSH0 DUP1 REVERT JUMPDEST SWAP1 PUSH0 MSTORE PUSH1 0x20 PUSH0 KECCAK256 ADD PUSH0 SWAP2 POP SWAP1 POP SLOAD DUP2 JUMP JUMPDEST PUSH0 DUP1 REVERT JUMPDEST PUSH0 DUP2 SWAP1 POP SWAP2 SWAP1 POP JUMP JUMPDEST PUSH2 0x3FD DUP2 PUSH2 0x3EB JUMP JUMPDEST DUP2 EQ PUSH2 0x407 JUMPI PUSH0 DUP1 REVERT JUMPDEST POP JUMP JUMPDEST PUSH0 DUP2 CALLDATALOAD SWAP1 POP PUSH2 0x418 DUP2 PUSH2 0x3F4 JUMP JUMPDEST SWAP3 SWAP2 POP POP JUMP JUMPDEST PUSH0 PUSH1 0x20 DUP3 DUP5 SUB SLT ISZERO PUSH2 0x433 JUMPI PUSH2 0x432 PUSH2 0x3E7 JUMP JUMPDEST JUMPDEST PUSH0 PUSH2 0x440 DUP5 DUP3 DUP6 ADD PUSH2 0x40A JUMP JUMPDEST SWAP2 POP POP SWAP3 SWAP2 POP POP JUMP JUMPDEST PUSH2 0x452 DUP2 PUSH2 0x3EB JUMP JUMPDEST DUP3 MSTORE POP POP JUMP JUMPDEST PUSH0 PUSH1 0x20 DUP3 ADD SWAP1 POP PUSH2 0x46B PUSH0 DUP4 ADD DUP5 PUSH2 0x449 JUMP JUMPDEST SWAP3 SWAP2 POP POP JUMP JUMPDEST PUSH0 PUSH20 0xFFFFFFFFFFFFFFFFFFFFFFFFFFFFFFFFFFFFFFFF DUP3 AND SWAP1 POP SWAP2 SWAP1 POP JUMP JUMPDEST PUSH0 PUSH2 0x49A DUP3 PUSH2 0x471 JUMP JUMPDEST SWAP1 POP SWAP2 SWAP1 POP JUMP JUMPDEST PUSH2 0x4AA DUP2 PUSH2 0x490 JUMP JUMPDEST DUP3 MSTORE POP POP JUMP JUMPDEST PUSH0 PUSH1 0x20 DUP3 ADD SWAP1 POP PUSH2 0x4C3 PUSH0 DUP4 ADD DUP5 PUSH2 0x4A1 JUMP JUMPDEST SWAP3 SWAP2 POP POP JUMP JUMPDEST PUSH32 0x4E487B7100000000000000000000000000000000000000000000000000000000 PUSH0 MSTORE PUSH1 0x21 PUSH1 0x4 MSTORE PUSH1 0x24 PUSH0 REVERT JUMPDEST PUSH1 0x3 DUP2 LT PUSH2 0x507 JUMPI PUSH2 0x506 PUSH2 0x4C9 JUMP JUMPDEST JUMPDEST POP JUMP JUMPDEST PUSH0 DUP2 SWAP1 POP PUSH2 0x517 DUP3 PUSH2 0x4F6 JUMP JUMPDEST SWAP2 SWAP1 POP JUMP JUMPDEST PUSH0 PUSH2 0x526 DUP3 PUSH2 0x50A JUMP JUMPDEST SWAP1 POP SWAP2 SWAP1 POP JUMP JUMPDEST PUSH2 0x536 DUP2 PUSH2 0x51C JUMP JUMPDEST DUP3 MSTORE POP POP JUMP JUMPDEST PUSH0 PUSH1 0x20 DUP3 ADD SWAP1 POP PUSH2 0x54F PUSH0 DUP4 ADD DUP5 PUSH2 0x52D JUMP JUMPDEST SWAP3 SWAP2 POP POP JUMP JUMPDEST PUSH0 PUSH1 0x40 DUP3 ADD SWAP1 POP PUSH2 0x568 PUSH0 DUP4 ADD DUP6 PUSH2 0x449 JUMP JUMPDEST PUSH2 0x575 PUSH1 0x20 DUP4 ADD DUP5 PUSH2 0x449 JUMP JUMPDEST SWAP4 SWAP3 POP POP POP JUMP JUMPDEST PUSH0 DUP2 MLOAD SWAP1 POP SWAP2 SWAP1 POP JUMP JUMPDEST PUSH0 DUP3 DUP3 MSTORE PUSH1 0x20 DUP3 ADD SWAP1 POP SWAP3 SWAP2 POP POP JUMP JUMPDEST PUSH0 JUMPDEST DUP4 DUP2 LT ISZERO PUSH2 0x5B3 JUMPI DUP1 DUP3 ADD MLOAD DUP2 DUP5 ADD MSTORE PUSH1 0x20 DUP2 ADD SWAP1 POP PUSH2 0x598 JUMP JUMPDEST PUSH0 DUP5 DUP5 ADD MSTORE POP POP POP POP JUMP JUMPDEST PUSH0 PUSH1 0x1F NOT PUSH1 0x1F DUP4 ADD AND SWAP1 POP SWAP2 SWAP1 POP JUMP JUMPDEST PUSH0 PUSH2 0x5D8 DUP3 PUSH2 0x57C JUMP JUMPDEST PUSH2 0x5E2 DUP2 DUP6 PUSH2 0x586 JUMP JUMPDEST SWAP4 POP PUSH2 0x5F2 DUP2 DUP6 PUSH1 0x20 DUP7 ADD PUSH2 0x596 JUMP JUMPDEST PUSH2 0x5FB DUP2 PUSH2 0x5BE JUMP JUMPDEST DUP5 ADD SWAP2 POP POP SWAP3 SWAP2 POP POP JUMP JUMPDEST PUSH0 PUSH1 0x20 DUP3 ADD SWAP1 POP DUP2 DUP2 SUB PUSH0 DUP4 ADD MSTORE PUSH2 0x61E DUP2 DUP5 PUSH2 0x5CE JUMP JUMPDEST SWAP1 POP SWAP3 SWAP2 POP POP JUMP JUMPDEST PUSH0 DUP2 ISZERO ISZERO SWAP1 POP SWAP2 SWAP1 POP JUMP JUMPDEST PUSH2 0x63A DUP2 PUSH2 0x626 JUMP JUMPDEST DUP3 MSTORE POP POP JUMP JUMPDEST PUSH0 PUSH1 0x20 DUP3 ADD SWAP1 POP PUSH2 0x653 PUSH0 DUP4 ADD DUP5 PUSH2 0x631 JUMP JUMPDEST SWAP3 SWAP2 POP POP JUMP JUMPDEST PUSH0 DUP2 SWAP1 POP SWAP2 SWAP1 POP JUMP JUMPDEST PUSH2 0x66B DUP2 PUSH2 0x659 JUMP JUMPDEST DUP3 MSTORE POP POP JUMP JUMPDEST PUSH0 PUSH1 0x20 DUP3 ADD SWAP1 POP PUSH2 0x684 PUSH0 DUP4 ADD DUP5 PUSH2 0x662 JUMP JUMPDEST SWAP3 SWAP2 POP POP JUMP JUMPDEST PUSH32 0x4E487B7100000000000000000000000000000000000000000000000000000000 PUSH0 MSTORE PUSH1 0x22 PUSH1 0x4 MSTORE PUSH1 0x24 PUSH0 REVERT JUMPDEST PUSH0 PUSH1 0x2 DUP3 DIV SWAP1 POP PUSH1 0x1 DUP3 AND DUP1 PUSH2 0x6CE JUMPI PUSH1 0x7F DUP3 AND SWAP2 POP JUMPDEST PUSH1 0x20 DUP3 LT DUP2 SUB PUSH2 0x6E1 JUMPI PUSH2 0x6E0 PUSH2 0x68A JUMP JUMPDEST JUMPDEST POP SWAP2 SWAP1 POP JUMP INVALID LOG2 PUSH5 0x6970667358 0x22 SLT KECCAK256 0xB1 0xBF 0x4A 0xCC 0xDC CALLDATACOPY 0xB8 0xBA SAR 0xEC 0x2E SWAP4 SGT 0xE6 0x2B 0x5E SWAP5 DIV PUSH29 0xFD90D68482DE6FA45FA8D1FFB764736F6C634300081600330000000000 "
				},
				"gasEstimates": {
					"creation": {
						"codeDepositCost": "364200",
						"executionCost": "24663",
						"totalCost": "388863"
					},
					"external": {
						"_address()": "2531",
						"_bool()": "2530",
						"_bool2()": "2510",
						"_dynamicArray(uint256)": "infinite",
						"_enum()": "2672",
						"_int()": "2491",
						"_mapping(uint256)": "2849",
						"_staticArray(uint256)": "infinite",
						"_string()": "infinite",
						"_uint()": "2470",
						"d()": "24407",
						"fe()": "254",
						"student()": "infinite"
					},
					"internal": {
						"fi()": "infinite"
					}
				},
				"methodIdentifiers": {
					"_address()": "18bad217",
					"_bool()": "9e6ba9c2",
					"_bool2()": "a2e7fe8a",
					"_dynamicArray(uint256)": "ea8e4fd1",
					"_enum()": "30c0826f",
					"_int()": "af45869e",
					"_mapping(uint256)": "a2ba3ee4",
					"_staticArray(uint256)": "12b7b142",
					"_string()": "9b267f09",
					"_uint()": "2543135b",
					"d()": "8a054ac2",
					"fe()": "86ed6eac",
					"student()": "699450e8"
				}
			},
			"storageLayout": {
				"storage": [
					{
						"astId": 3,
						"contract": "InitialValue.sol:InitialValue",
						"label": "_bool",
						"offset": 0,
						"slot": "0",
						"type": "t_bool"
					},
					{
						"astId": 5,
						"contract": "InitialValue.sol:InitialValue",
						"label": "_string",
						"offset": 0,
						"slot": "1",
						"type": "t_string_storage"
					},
					{
						"astId": 7,
						"contract": "InitialValue.sol:InitialValue",
						"label": "_int",
						"offset": 0,
						"slot": "2",
						"type": "t_int256"
					},
					{
						"astId": 9,
						"contract": "InitialValue.sol:InitialValue",
						"label": "_uint",
						"offset": 0,
						"slot": "3",
						"type": "t_uint256"
					},
					{
						"astId": 11,
						"contract": "InitialValue.sol:InitialValue",
						"label": "_address",
						"offset": 0,
						"slot": "4",
						"type": "t_address"
					},
					{
						"astId": 18,
						"contract": "InitialValue.sol:InitialValue",
						"label": "_enum",
						"offset": 20,
						"slot": "4",
						"type": "t_enum(ActionSet)15"
					},
					{
						"astId": 30,
						"contract": "InitialValue.sol:InitialValue",
						"label": "_staticArray",
						"offset": 0,
						"slot": "5",
						"type": "t_array(t_uint256)8_storage"
					},
					{
						"astId": 33,
						"contract": "InitialValue.sol:InitialValue",
						"label": "_dynamicArray",
						"offset": 0,
						"slot": "13",
						"type": "t_array(t_uint256)dyn_storage"
					},
					{
						"astId": 37,
						"contract": "InitialValue.sol:InitialValue",
						"label": "_mapping",
						"offset": 0,
						"slot": "14",
						"type": "t_mapping(t_uint256,t_address)"
					},
					{
						"astId": 45,
						"contract": "InitialValue.sol:InitialValue",
						"label": "student",
						"offset": 0,
						"slot": "15",
						"type": "t_struct(Student)42_storage"
					},
					{
						"astId": 48,
						"contract": "InitialValue.sol:InitialValue",
						"label": "_bool2",
						"offset": 0,
						"slot": "17",
						"type": "t_bool"
					}
				],
				"types": {
					"t_address": {
						"encoding": "inplace",
						"label": "address",
						"numberOfBytes": "20"
					},
					"t_array(t_uint256)8_storage": {
						"base": "t_uint256",
						"encoding": "inplace",
						"label": "uint256[8]",
						"numberOfBytes": "256"
					},
					"t_array(t_uint256)dyn_storage": {
						"base": "t_uint256",
						"encoding": "dynamic_array",
						"label": "uint256[]",
						"numberOfBytes": "32"
					},
					"t_bool": {
						"encoding": "inplace",
						"label": "bool",
						"numberOfBytes": "1"
					},
					"t_enum(ActionSet)15": {
						"encoding": "inplace",
						"label": "enum InitialValue.ActionSet",
						"numberOfBytes": "1"
					},
					"t_int256": {
						"encoding": "inplace",
						"label": "int256",
						"numberOfBytes": "32"
					},
					"t_mapping(t_uint256,t_address)": {
						"encoding": "mapping",
						"key": "t_uint256",
						"label": "mapping(uint256 => address)",
						"numberOfBytes": "32",
						"value": "t_address"
					},
					"t_string_storage": {
						"encoding": "bytes",
						"label": "string",
						"numberOfBytes": "32"
					},
					"t_struct(Student)42_storage": {
						"encoding": "inplace",
						"label": "struct InitialValue.Student",
						"members": [
							{
								"astId": 39,
								"contract": "InitialValue.sol:InitialValue",
								"label": "id",
								"offset": 0,
								"slot": "0",
								"type": "t_uint256"
							},
							{
								"astId": 41,
								"contract": "InitialValue.sol:InitialValue",
								"label": "score",
								"offset": 0,
								"slot": "1",
								"type": "t_uint256"
							}
						],
						"numberOfBytes": "64"
					},
					"t_uint256": {
						"encoding": "inplace",
						"label": "uint256",
						"numberOfBytes": "32"
					}
				}
			},
			"userdoc": {
				"kind": "user",
				"methods": {},
				"version": 1
			}
		}
	}
}