{
	"Constant.sol": {
		"Constant": {
			"abi": [
				{
					"inputs": [],
					"stateMutability": "nonpayable",
					"type": "constructor"
				},
				{
					"inputs": [],
					"name": "CONSTANT_ADDRESS",
					"outputs": [
						{
							"internalType": "address",
							"name": "",
							"type": "address"
						}
					],
					"stateMutability": "view",
					"type": "function"
				},
				{
					"inputs": [],
					"name": "CONSTANT_BYTES",
					"outputs": [
						{
							"internalType": "bytes",
							"name": "",
							"type": "bytes"
						}
					],
					"stateMutability": "view",
					"type": "function"
				},
				{
					"inputs": [],
					"name": "CONSTANT_NUM",
					"outputs": [
						{
							"internalType": "uint256",
							"name": "",
							"type": "uint256"
						}
					],
					"stateMutability": "view",
					"type": "function"
				},
				{
					"inputs": [],
					"name": "CONSTANT_STRING",
					"outputs": [
						{
							"internalType": "string",
							"name": "",
							"type": "string"
						}
					],
					"stateMutability": "view",
					"type": "function"
				},
				{
					"inputs": [],
					"name": "IMMUTABLE_ADDRESS",
					"outputs": [
						{
							"internalType": "address",
							"name": "",
							"type": "address"
						}
					],
					"stateMutability": "view",
					"type": "function"
				},
				{
					"inputs": [],
					"name": "IMMUTABLE_BLOCK",
					"outputs": [
						{
							"internalType": "uint256",
							"name": "",
							"type": "uint256"
						}
					],
					"stateMutability": "view",
					"type": "function"
				},
				{
					"inputs": [],
					"name": "IMMUTABLE_NUM",
					"outputs": [
						{
							"internalType": "uint256",
							"name": "",
							"type": "uint256"
						}
					],
					"stateMutability": "view",
					"type": "function"
				},
				{
					"inputs": [],
					"name": "IMMUTABLE_TEST",
					"outputs": [
						{
							"internalType": "uint256",
							"name": "",
							"type": "uint256"
						}
					],
					"stateMutability": "view",
					"type": "function"
				},
				{
					"inputs": [],
					"name": "test",
					"outputs": [
						{
							"internalType": "uint256",
							"name": "",
							"type": "uint256"
						}
					],
					"stateMutability": "pure",
					"type": "function"
				}
			],
			"devdoc": {
				"kind": "dev",
				"methods": {},
				"version": 1
			},
			"evm": {
				"assembly": "    /* \"Constant.sol\":58:976  contract Constant {... */\n  mstore(0x40, 0x0100)\n    /* \"Constant.sol\":517:527  9999999999 */\n  0x02540be3ff\n    /* \"Constant.sol\":476:527  uint256 public immutable IMMUTABLE_NUM = 9999999999 */\n  0x80\n  swap1\n  dup2\n  mstore\n  pop\n    /* \"Constant.sol\":743:869  constructor(){... */\n  callvalue\n  dup1\n  iszero\n  tag_1\n  jumpi\n  0x00\n  dup1\n  revert\ntag_1:\n  pop\n    /* \"Constant.sol\":794:798  this */\n  address\n    /* \"Constant.sol\":766:799  IMMUTABLE_ADDRESS = address(this) */\n  0xffffffffffffffffffffffffffffffffffffffff\n  and\n  0xa0\n  dup2\n  0xffffffffffffffffffffffffffffffffffffffff\n  and\n  dup2\n  mstore\n  pop\n  pop\n    /* \"Constant.sol\":825:829  1118 */\n  0x045e\n    /* \"Constant.sol\":809:829  IMMUTABLE_NUM = 1118 */\n  0x80\n  dup2\n  dup2\n  mstore\n  pop\n  pop\n    /* \"Constant.sol\":856:862  test() */\n  tag_4\n    /* \"Constant.sol\":856:860  test */\n  shl(0x20, tag_5)\n    /* \"Constant.sol\":856:862  test() */\n  0x20\n  shr\n  jump\t// in\ntag_4:\n    /* \"Constant.sol\":839:862  IMMUTABLE_TEST = test() */\n  0xe0\n  dup2\n  dup2\n  mstore\n  pop\n  pop\n    /* \"Constant.sol\":58:976  contract Constant {... */\n  jump(tag_6)\n    /* \"Constant.sol\":875:974  function test() public pure returns(uint256){... */\ntag_5:\n    /* \"Constant.sol\":911:918  uint256 */\n  0x00\n    /* \"Constant.sol\":929:941  uint256 what */\n  dup1\n    /* \"Constant.sol\":944:945  9 */\n  0x09\n    /* \"Constant.sol\":929:945  uint256 what = 9 */\n  swap1\n  pop\n    /* \"Constant.sol\":962:966  what */\n  dup1\n    /* \"Constant.sol\":955:967  return(what) */\n  swap2\n  pop\n  pop\n    /* \"Constant.sol\":875:974  function test() public pure returns(uint256){... */\n  swap1\n  jump\t// out\n    /* \"Constant.sol\":58:976  contract Constant {... */\ntag_6:\n  mload(0x80)\n  mload(0xa0)\n  mload(0xc0)\n  mload(0xe0)\n  codecopy(0x00, dataOffset(sub_0), dataSize(sub_0))\n  0x00\n  assignImmutable(\"0xd4d1a59767271eefdc7830a772b9732a11d503531d972ab8c981a6b1c0e666e5\")\n  0x00\n  assignImmutable(\"0x731dc163f73d31d8c68f9917ce4ff967753939f70432973c04fd2c2a48148607\")\n  0x00\n  assignImmutable(\"0x8fef2229291b68be841adf029e58b87f39ba144b2d3b0af1760243d0a9bc6a1c\")\n  0x00\n  assignImmutable(\"0x277ab82e5a4641341820a4a2933a62c1de997e42e92548657ae21b3728d580fe\")\n  return(0x00, dataSize(sub_0))\nstop\n\nsub_0: assembly {\n        /* \"Constant.sol\":58:976  contract Constant {... */\n      mstore(0x40, 0x80)\n      callvalue\n      dup1\n      iszero\n      tag_1\n      jumpi\n      0x00\n      dup1\n      revert\n    tag_1:\n      pop\n      jumpi(tag_2, lt(calldatasize, 0x04))\n      shr(0xe0, calldataload(0x00))\n      dup1\n      0x79135c7d\n      gt\n      tag_12\n      jumpi\n      dup1\n      0x79135c7d\n      eq\n      tag_7\n      jumpi\n      dup1\n      0x858e0403\n      eq\n      tag_8\n      jumpi\n      dup1\n      0xed7ff875\n      eq\n      tag_9\n      jumpi\n      dup1\n      0xf1513021\n      eq\n      tag_10\n      jumpi\n      dup1\n      0xf8a8fd6d\n      eq\n      tag_11\n      jumpi\n      jump(tag_2)\n    tag_12:\n      dup1\n      0x1adead50\n      eq\n      tag_3\n      jumpi\n      dup1\n      0x1d9afdd2\n      eq\n      tag_4\n      jumpi\n      dup1\n      0x2314d48c\n      eq\n      tag_5\n      jumpi\n      dup1\n      0x4064572e\n      eq\n      tag_6\n      jumpi\n    tag_2:\n      0x00\n      dup1\n      revert\n        /* \"Constant.sol\":205:252  string public constant CONSTANT_STRING = \"0xAA\" */\n    tag_3:\n      tag_13\n      tag_14\n      jump\t// in\n    tag_13:\n      mload(0x40)\n      tag_15\n      swap2\n      swap1\n      tag_16\n      jump\t// in\n    tag_15:\n      mload(0x40)\n      dup1\n      swap2\n      sub\n      swap1\n      return\n        /* \"Constant.sol\":581:621  uint256 public immutable IMMUTABLE_BLOCK */\n    tag_4:\n      tag_17\n      tag_18\n      jump\t// in\n    tag_17:\n      mload(0x40)\n      tag_19\n      swap2\n      swap1\n      tag_20\n      jump\t// in\n    tag_19:\n      mload(0x40)\n      dup1\n      swap2\n      sub\n      swap1\n      return\n        /* \"Constant.sol\":158:199  uint256 public constant CONSTANT_NUM = 10 */\n    tag_5:\n      tag_21\n      tag_22\n      jump\t// in\n    tag_21:\n      mload(0x40)\n      tag_23\n      swap2\n      swap1\n      tag_20\n      jump\t// in\n    tag_23:\n      mload(0x40)\n      dup1\n      swap2\n      sub\n      swap1\n      return\n        /* \"Constant.sol\":627:666  uint256 public immutable IMMUTABLE_TEST */\n    tag_6:\n      tag_24\n      tag_25\n      jump\t// in\n    tag_24:\n      mload(0x40)\n      tag_26\n      swap2\n      swap1\n      tag_20\n      jump\t// in\n    tag_26:\n      mload(0x40)\n      dup1\n      swap2\n      sub\n      swap1\n      return\n        /* \"Constant.sol\":258:302  bytes public constant CONSTANT_BYTES = \"WTF\" */\n    tag_7:\n      tag_27\n      tag_28\n      jump\t// in\n    tag_27:\n      mload(0x40)\n      tag_29\n      swap2\n      swap1\n      tag_30\n      jump\t// in\n    tag_29:\n      mload(0x40)\n      dup1\n      swap2\n      sub\n      swap1\n      return\n        /* \"Constant.sol\":308:393  address public constant CONSTANT_ADDRESS = 0x0000000000000000000000000000000000000000 */\n    tag_8:\n      tag_31\n      tag_32\n      jump\t// in\n    tag_31:\n      mload(0x40)\n      tag_33\n      swap2\n      swap1\n      tag_34\n      jump\t// in\n    tag_33:\n      mload(0x40)\n      dup1\n      swap2\n      sub\n      swap1\n      return\n        /* \"Constant.sol\":476:527  uint256 public immutable IMMUTABLE_NUM = 9999999999 */\n    tag_9:\n      tag_35\n      tag_36\n      jump\t// in\n    tag_35:\n      mload(0x40)\n      tag_37\n      swap2\n      swap1\n      tag_20\n      jump\t// in\n    tag_37:\n      mload(0x40)\n      dup1\n      swap2\n      sub\n      swap1\n      return\n        /* \"Constant.sol\":533:575  address public immutable IMMUTABLE_ADDRESS */\n    tag_10:\n      tag_38\n      tag_39\n      jump\t// in\n    tag_38:\n      mload(0x40)\n      tag_40\n      swap2\n      swap1\n      tag_34\n      jump\t// in\n    tag_40:\n      mload(0x40)\n      dup1\n      swap2\n      sub\n      swap1\n      return\n        /* \"Constant.sol\":875:974  function test() public pure returns(uint256){... */\n    tag_11:\n      tag_41\n      tag_42\n      jump\t// in\n    tag_41:\n      mload(0x40)\n      tag_43\n      swap2\n      swap1\n      tag_20\n      jump\t// in\n    tag_43:\n      mload(0x40)\n      dup1\n      swap2\n      sub\n      swap1\n      return\n        /* \"Constant.sol\":205:252  string public constant CONSTANT_STRING = \"0xAA\" */\n    tag_14:\n      mload(0x40)\n      dup1\n      0x40\n      add\n      0x40\n      mstore\n      dup1\n      0x04\n      dup2\n      mstore\n      0x20\n      add\n      0x3078414100000000000000000000000000000000000000000000000000000000\n      dup2\n      mstore\n      pop\n      dup2\n      jump\t// out\n        /* \"Constant.sol\":581:621  uint256 public immutable IMMUTABLE_BLOCK */\n    tag_18:\n      immutable(\"0x731dc163f73d31d8c68f9917ce4ff967753939f70432973c04fd2c2a48148607\")\n      dup2\n      jump\t// out\n        /* \"Constant.sol\":158:199  uint256 public constant CONSTANT_NUM = 10 */\n    tag_22:\n        /* \"Constant.sol\":197:199  10 */\n      0x0a\n        /* \"Constant.sol\":158:199  uint256 public constant CONSTANT_NUM = 10 */\n      dup2\n      jump\t// out\n        /* \"Constant.sol\":627:666  uint256 public immutable IMMUTABLE_TEST */\n    tag_25:\n      immutable(\"0xd4d1a59767271eefdc7830a772b9732a11d503531d972ab8c981a6b1c0e666e5\")\n      dup2\n      jump\t// out\n        /* \"Constant.sol\":258:302  bytes public constant CONSTANT_BYTES = \"WTF\" */\n    tag_28:\n      mload(0x40)\n      dup1\n      0x40\n      add\n      0x40\n      mstore\n      dup1\n      0x03\n      dup2\n      mstore\n      0x20\n      add\n      0x5754460000000000000000000000000000000000000000000000000000000000\n      dup2\n      mstore\n      pop\n      dup2\n      jump\t// out\n        /* \"Constant.sol\":308:393  address public constant CONSTANT_ADDRESS = 0x0000000000000000000000000000000000000000 */\n    tag_32:\n        /* \"Constant.sol\":351:393  0x0000000000000000000000000000000000000000 */\n      0x00\n        /* \"Constant.sol\":308:393  address public constant CONSTANT_ADDRESS = 0x0000000000000000000000000000000000000000 */\n      dup2\n      jump\t// out\n        /* \"Constant.sol\":476:527  uint256 public immutable IMMUTABLE_NUM = 9999999999 */\n    tag_36:\n      immutable(\"0x277ab82e5a4641341820a4a2933a62c1de997e42e92548657ae21b3728d580fe\")\n      dup2\n      jump\t// out\n        /* \"Constant.sol\":533:575  address public immutable IMMUTABLE_ADDRESS */\n    tag_39:\n      immutable(\"0x8fef2229291b68be841adf029e58b87f39ba144b2d3b0af1760243d0a9bc6a1c\")\n      dup2\n      jump\t// out\n        /* \"Constant.sol\":875:974  function test() public pure returns(uint256){... */\n    tag_42:\n        /* \"Constant.sol\":911:918  uint256 */\n      0x00\n        /* \"Constant.sol\":929:941  uint256 what */\n      dup1\n        /* \"Constant.sol\":944:945  9 */\n      0x09\n        /* \"Constant.sol\":929:945  uint256 what = 9 */\n      swap1\n      pop\n        /* \"Constant.sol\":962:966  what */\n      dup1\n        /* \"Constant.sol\":955:967  return(what) */\n      swap2\n      pop\n      pop\n        /* \"Constant.sol\":875:974  function test() public pure returns(uint256){... */\n      swap1\n      jump\t// out\n        /* \"#utility.yul\":7:106   */\n    tag_45:\n        /* \"#utility.yul\":59:65   */\n      0x00\n        /* \"#utility.yul\":93:98   */\n      dup2\n        /* \"#utility.yul\":87:99   */\n      mload\n        /* \"#utility.yul\":77:99   */\n      swap1\n      pop\n        /* \"#utility.yul\":7:106   */\n      swap2\n      swap1\n      pop\n      jump\t// out\n        /* \"#utility.yul\":112:281   */\n    tag_46:\n        /* \"#utility.yul\":196:207   */\n      0x00\n        /* \"#utility.yul\":230:236   */\n      dup3\n        /* \"#utility.yul\":225:228   */\n      dup3\n        /* \"#utility.yul\":218:237   */\n      mstore\n        /* \"#utility.yul\":270:274   */\n      0x20\n        /* \"#utility.yul\":265:268   */\n      dup3\n        /* \"#utility.yul\":261:275   */\n      add\n        /* \"#utility.yul\":246:275   */\n      swap1\n      pop\n        /* \"#utility.yul\":112:281   */\n      swap3\n      swap2\n      pop\n      pop\n      jump\t// out\n        /* \"#utility.yul\":287:533   */\n    tag_47:\n        /* \"#utility.yul\":368:369   */\n      0x00\n        /* \"#utility.yul\":378:491   */\n    tag_62:\n        /* \"#utility.yul\":392:398   */\n      dup4\n        /* \"#utility.yul\":389:390   */\n      dup2\n        /* \"#utility.yul\":386:399   */\n      lt\n        /* \"#utility.yul\":378:491   */\n      iszero\n      tag_64\n      jumpi\n        /* \"#utility.yul\":477:478   */\n      dup1\n        /* \"#utility.yul\":472:475   */\n      dup3\n        /* \"#utility.yul\":468:479   */\n      add\n        /* \"#utility.yul\":462:480   */\n      mload\n        /* \"#utility.yul\":458:459   */\n      dup2\n        /* \"#utility.yul\":453:456   */\n      dup5\n        /* \"#utility.yul\":449:460   */\n      add\n        /* \"#utility.yul\":442:481   */\n      mstore\n        /* \"#utility.yul\":414:416   */\n      0x20\n        /* \"#utility.yul\":411:412   */\n      dup2\n        /* \"#utility.yul\":407:417   */\n      add\n        /* \"#utility.yul\":402:417   */\n      swap1\n      pop\n        /* \"#utility.yul\":378:491   */\n      jump(tag_62)\n    tag_64:\n        /* \"#utility.yul\":525:526   */\n      0x00\n        /* \"#utility.yul\":516:522   */\n      dup5\n        /* \"#utility.yul\":511:514   */\n      dup5\n        /* \"#utility.yul\":507:523   */\n      add\n        /* \"#utility.yul\":500:527   */\n      mstore\n        /* \"#utility.yul\":349:533   */\n      pop\n        /* \"#utility.yul\":287:533   */\n      pop\n      pop\n      pop\n      jump\t// out\n        /* \"#utility.yul\":539:641   */\n    tag_48:\n        /* \"#utility.yul\":580:586   */\n      0x00\n        /* \"#utility.yul\":631:633   */\n      0x1f\n        /* \"#utility.yul\":627:634   */\n      not\n        /* \"#utility.yul\":622:624   */\n      0x1f\n        /* \"#utility.yul\":615:620   */\n      dup4\n        /* \"#utility.yul\":611:625   */\n      add\n        /* \"#utility.yul\":607:635   */\n      and\n        /* \"#utility.yul\":597:635   */\n      swap1\n      pop\n        /* \"#utility.yul\":539:641   */\n      swap2\n      swap1\n      pop\n      jump\t// out\n        /* \"#utility.yul\":647:1024   */\n    tag_49:\n        /* \"#utility.yul\":735:738   */\n      0x00\n        /* \"#utility.yul\":763:802   */\n      tag_67\n        /* \"#utility.yul\":796:801   */\n      dup3\n        /* \"#utility.yul\":763:802   */\n      tag_45\n      jump\t// in\n    tag_67:\n        /* \"#utility.yul\":818:889   */\n      tag_68\n        /* \"#utility.yul\":882:888   */\n      dup2\n        /* \"#utility.yul\":877:880   */\n      dup6\n        /* \"#utility.yul\":818:889   */\n      tag_46\n      jump\t// in\n    tag_68:\n        /* \"#utility.yul\":811:889   */\n      swap4\n      pop\n        /* \"#utility.yul\":898:963   */\n      tag_69\n        /* \"#utility.yul\":956:962   */\n      dup2\n        /* \"#utility.yul\":951:954   */\n      dup6\n        /* \"#utility.yul\":944:948   */\n      0x20\n        /* \"#utility.yul\":937:942   */\n      dup7\n        /* \"#utility.yul\":933:949   */\n      add\n        /* \"#utility.yul\":898:963   */\n      tag_47\n      jump\t// in\n    tag_69:\n        /* \"#utility.yul\":988:1017   */\n      tag_70\n        /* \"#utility.yul\":1010:1016   */\n      dup2\n        /* \"#utility.yul\":988:1017   */\n      tag_48\n      jump\t// in\n    tag_70:\n        /* \"#utility.yul\":983:986   */\n      dup5\n        /* \"#utility.yul\":979:1018   */\n      add\n        /* \"#utility.yul\":972:1018   */\n      swap2\n      pop\n        /* \"#utility.yul\":739:1024   */\n      pop\n        /* \"#utility.yul\":647:1024   */\n      swap3\n      swap2\n      pop\n      pop\n      jump\t// out\n        /* \"#utility.yul\":1030:1343   */\n    tag_16:\n        /* \"#utility.yul\":1143:1147   */\n      0x00\n        /* \"#utility.yul\":1181:1183   */\n      0x20\n        /* \"#utility.yul\":1170:1179   */\n      dup3\n        /* \"#utility.yul\":1166:1184   */\n      add\n        /* \"#utility.yul\":1158:1184   */\n      swap1\n      pop\n        /* \"#utility.yul\":1230:1239   */\n      dup2\n        /* \"#utility.yul\":1224:1228   */\n      dup2\n        /* \"#utility.yul\":1220:1240   */\n      sub\n        /* \"#utility.yul\":1216:1217   */\n      0x00\n        /* \"#utility.yul\":1205:1214   */\n      dup4\n        /* \"#utility.yul\":1201:1218   */\n      add\n        /* \"#utility.yul\":1194:1241   */\n      mstore\n        /* \"#utility.yul\":1258:1336   */\n      tag_72\n        /* \"#utility.yul\":1331:1335   */\n      dup2\n        /* \"#utility.yul\":1322:1328   */\n      dup5\n        /* \"#utility.yul\":1258:1336   */\n      tag_49\n      jump\t// in\n    tag_72:\n        /* \"#utility.yul\":1250:1336   */\n      swap1\n      pop\n        /* \"#utility.yul\":1030:1343   */\n      swap3\n      swap2\n      pop\n      pop\n      jump\t// out\n        /* \"#utility.yul\":1349:1426   */\n    tag_50:\n        /* \"#utility.yul\":1386:1393   */\n      0x00\n        /* \"#utility.yul\":1415:1420   */\n      dup2\n        /* \"#utility.yul\":1404:1420   */\n      swap1\n      pop\n        /* \"#utility.yul\":1349:1426   */\n      swap2\n      swap1\n      pop\n      jump\t// out\n        /* \"#utility.yul\":1432:1550   */\n    tag_51:\n        /* \"#utility.yul\":1519:1543   */\n      tag_75\n        /* \"#utility.yul\":1537:1542   */\n      dup2\n        /* \"#utility.yul\":1519:1543   */\n      tag_50\n      jump\t// in\n    tag_75:\n        /* \"#utility.yul\":1514:1517   */\n      dup3\n        /* \"#utility.yul\":1507:1544   */\n      mstore\n        /* \"#utility.yul\":1432:1550   */\n      pop\n      pop\n      jump\t// out\n        /* \"#utility.yul\":1556:1778   */\n    tag_20:\n        /* \"#utility.yul\":1649:1653   */\n      0x00\n        /* \"#utility.yul\":1687:1689   */\n      0x20\n        /* \"#utility.yul\":1676:1685   */\n      dup3\n        /* \"#utility.yul\":1672:1690   */\n      add\n        /* \"#utility.yul\":1664:1690   */\n      swap1\n      pop\n        /* \"#utility.yul\":1700:1771   */\n      tag_77\n        /* \"#utility.yul\":1768:1769   */\n      0x00\n        /* \"#utility.yul\":1757:1766   */\n      dup4\n        /* \"#utility.yul\":1753:1770   */\n      add\n        /* \"#utility.yul\":1744:1750   */\n      dup5\n        /* \"#utility.yul\":1700:1771   */\n      tag_51\n      jump\t// in\n    tag_77:\n        /* \"#utility.yul\":1556:1778   */\n      swap3\n      swap2\n      pop\n      pop\n      jump\t// out\n        /* \"#utility.yul\":1784:1882   */\n    tag_52:\n        /* \"#utility.yul\":1835:1841   */\n      0x00\n        /* \"#utility.yul\":1869:1874   */\n      dup2\n        /* \"#utility.yul\":1863:1875   */\n      mload\n        /* \"#utility.yul\":1853:1875   */\n      swap1\n      pop\n        /* \"#utility.yul\":1784:1882   */\n      swap2\n      swap1\n      pop\n      jump\t// out\n        /* \"#utility.yul\":1888:2056   */\n    tag_53:\n        /* \"#utility.yul\":1971:1982   */\n      0x00\n        /* \"#utility.yul\":2005:2011   */\n      dup3\n        /* \"#utility.yul\":2000:2003   */\n      dup3\n        /* \"#utility.yul\":1993:2012   */\n      mstore\n        /* \"#utility.yul\":2045:2049   */\n      0x20\n        /* \"#utility.yul\":2040:2043   */\n      dup3\n        /* \"#utility.yul\":2036:2050   */\n      add\n        /* \"#utility.yul\":2021:2050   */\n      swap1\n      pop\n        /* \"#utility.yul\":1888:2056   */\n      swap3\n      swap2\n      pop\n      pop\n      jump\t// out\n        /* \"#utility.yul\":2062:2435   */\n    tag_54:\n        /* \"#utility.yul\":2148:2151   */\n      0x00\n        /* \"#utility.yul\":2176:2214   */\n      tag_81\n        /* \"#utility.yul\":2208:2213   */\n      dup3\n        /* \"#utility.yul\":2176:2214   */\n      tag_52\n      jump\t// in\n    tag_81:\n        /* \"#utility.yul\":2230:2300   */\n      tag_82\n        /* \"#utility.yul\":2293:2299   */\n      dup2\n        /* \"#utility.yul\":2288:2291   */\n      dup6\n        /* \"#utility.yul\":2230:2300   */\n      tag_53\n      jump\t// in\n    tag_82:\n        /* \"#utility.yul\":2223:2300   */\n      swap4\n      pop\n        /* \"#utility.yul\":2309:2374   */\n      tag_83\n        /* \"#utility.yul\":2367:2373   */\n      dup2\n        /* \"#utility.yul\":2362:2365   */\n      dup6\n        /* \"#utility.yul\":2355:2359   */\n      0x20\n        /* \"#utility.yul\":2348:2353   */\n      dup7\n        /* \"#utility.yul\":2344:2360   */\n      add\n        /* \"#utility.yul\":2309:2374   */\n      tag_47\n      jump\t// in\n    tag_83:\n        /* \"#utility.yul\":2399:2428   */\n      tag_84\n        /* \"#utility.yul\":2421:2427   */\n      dup2\n        /* \"#utility.yul\":2399:2428   */\n      tag_48\n      jump\t// in\n    tag_84:\n        /* \"#utility.yul\":2394:2397   */\n      dup5\n        /* \"#utility.yul\":2390:2429   */\n      add\n        /* \"#utility.yul\":2383:2429   */\n      swap2\n      pop\n        /* \"#utility.yul\":2152:2435   */\n      pop\n        /* \"#utility.yul\":2062:2435   */\n      swap3\n      swap2\n      pop\n      pop\n      jump\t// out\n        /* \"#utility.yul\":2441:2750   */\n    tag_30:\n        /* \"#utility.yul\":2552:2556   */\n      0x00\n        /* \"#utility.yul\":2590:2592   */\n      0x20\n        /* \"#utility.yul\":2579:2588   */\n      dup3\n        /* \"#utility.yul\":2575:2593   */\n      add\n        /* \"#utility.yul\":2567:2593   */\n      swap1\n      pop\n        /* \"#utility.yul\":2639:2648   */\n      dup2\n        /* \"#utility.yul\":2633:2637   */\n      dup2\n        /* \"#utility.yul\":2629:2649   */\n      sub\n        /* \"#utility.yul\":2625:2626   */\n      0x00\n        /* \"#utility.yul\":2614:2623   */\n      dup4\n        /* \"#utility.yul\":2610:2627   */\n      add\n        /* \"#utility.yul\":2603:2650   */\n      mstore\n        /* \"#utility.yul\":2667:2743   */\n      tag_86\n        /* \"#utility.yul\":2738:2742   */\n      dup2\n        /* \"#utility.yul\":2729:2735   */\n      dup5\n        /* \"#utility.yul\":2667:2743   */\n      tag_54\n      jump\t// in\n    tag_86:\n        /* \"#utility.yul\":2659:2743   */\n      swap1\n      pop\n        /* \"#utility.yul\":2441:2750   */\n      swap3\n      swap2\n      pop\n      pop\n      jump\t// out\n        /* \"#utility.yul\":2756:2882   */\n    tag_55:\n        /* \"#utility.yul\":2793:2800   */\n      0x00\n        /* \"#utility.yul\":2833:2875   */\n      0xffffffffffffffffffffffffffffffffffffffff\n        /* \"#utility.yul\":2826:2831   */\n      dup3\n        /* \"#utility.yul\":2822:2876   */\n      and\n        /* \"#utility.yul\":2811:2876   */\n      swap1\n      pop\n        /* \"#utility.yul\":2756:2882   */\n      swap2\n      swap1\n      pop\n      jump\t// out\n        /* \"#utility.yul\":2888:2984   */\n    tag_56:\n        /* \"#utility.yul\":2925:2932   */\n      0x00\n        /* \"#utility.yul\":2954:2978   */\n      tag_89\n        /* \"#utility.yul\":2972:2977   */\n      dup3\n        /* \"#utility.yul\":2954:2978   */\n      tag_55\n      jump\t// in\n    tag_89:\n        /* \"#utility.yul\":2943:2978   */\n      swap1\n      pop\n        /* \"#utility.yul\":2888:2984   */\n      swap2\n      swap1\n      pop\n      jump\t// out\n        /* \"#utility.yul\":2990:3108   */\n    tag_57:\n        /* \"#utility.yul\":3077:3101   */\n      tag_91\n        /* \"#utility.yul\":3095:3100   */\n      dup2\n        /* \"#utility.yul\":3077:3101   */\n      tag_56\n      jump\t// in\n    tag_91:\n        /* \"#utility.yul\":3072:3075   */\n      dup3\n        /* \"#utility.yul\":3065:3102   */\n      mstore\n        /* \"#utility.yul\":2990:3108   */\n      pop\n      pop\n      jump\t// out\n        /* \"#utility.yul\":3114:3336   */\n    tag_34:\n        /* \"#utility.yul\":3207:3211   */\n      0x00\n        /* \"#utility.yul\":3245:3247   */\n      0x20\n        /* \"#utility.yul\":3234:3243   */\n      dup3\n        /* \"#utility.yul\":3230:3248   */\n      add\n        /* \"#utility.yul\":3222:3248   */\n      swap1\n      pop\n        /* \"#utility.yul\":3258:3329   */\n      tag_93\n        /* \"#utility.yul\":3326:3327   */\n      0x00\n        /* \"#utility.yul\":3315:3324   */\n      dup4\n        /* \"#utility.yul\":3311:3328   */\n      add\n        /* \"#utility.yul\":3302:3308   */\n      dup5\n        /* \"#utility.yul\":3258:3329   */\n      tag_57\n      jump\t// in\n    tag_93:\n        /* \"#utility.yul\":3114:3336   */\n      swap3\n      swap2\n      pop\n      pop\n      jump\t// out\n\n    auxdata: 0xa26469706673582212207101f0afd73585f746f60620c76c7010878f008259a4ae759ee8e5b2021dbaa464736f6c63430008160033\n}\n",
				"bytecode": {
					"linkReferences": {},
					"object": "6101006040526402540be3ff60809081525034801561001c575f80fd5b503073ffffffffffffffffffffffffffffffffffffffff1660a08173ffffffffffffffffffffffffffffffffffffffff168152505061045e6080818152505061006961007560201b60201c565b60e08181525050610082565b5f80600990508091505090565b60805160a05160c05160e0516104966100b55f395f61020701525f6101de01525f61028c01525f61026801526104965ff3fe608060405234801561000f575f80fd5b5060043610610091575f3560e01c806379135c7d1161006457806379135c7d1461010d578063858e04031461012b578063ed7ff87514610149578063f151302114610167578063f8a8fd6d1461018557610091565b80631adead50146100955780631d9afdd2146100b35780632314d48c146100d15780634064572e146100ef575b5f80fd5b61009d6101a3565b6040516100aa9190610345565b60405180910390f35b6100bb6101dc565b6040516100c8919061037d565b60405180910390f35b6100d9610200565b6040516100e6919061037d565b60405180910390f35b6100f7610205565b604051610104919061037d565b60405180910390f35b610115610229565b60405161012291906103e8565b60405180910390f35b610133610262565b6040516101409190610447565b60405180910390f35b610151610266565b60405161015e919061037d565b60405180910390f35b61016f61028a565b60405161017c9190610447565b60405180910390f35b61018d6102ae565b60405161019a919061037d565b60405180910390f35b6040518060400160405280600481526020017f307841410000000000000000000000000000000000000000000000000000000081525081565b7f000000000000000000000000000000000000000000000000000000000000000081565b600a81565b7f000000000000000000000000000000000000000000000000000000000000000081565b6040518060400160405280600381526020017f575446000000000000000000000000000000000000000000000000000000000081525081565b5f81565b7f000000000000000000000000000000000000000000000000000000000000000081565b7f000000000000000000000000000000000000000000000000000000000000000081565b5f80600990508091505090565b5f81519050919050565b5f82825260208201905092915050565b5f5b838110156102f25780820151818401526020810190506102d7565b5f8484015250505050565b5f601f19601f8301169050919050565b5f610317826102bb565b61032181856102c5565b93506103318185602086016102d5565b61033a816102fd565b840191505092915050565b5f6020820190508181035f83015261035d818461030d565b905092915050565b5f819050919050565b61037781610365565b82525050565b5f6020820190506103905f83018461036e565b92915050565b5f81519050919050565b5f82825260208201905092915050565b5f6103ba82610396565b6103c481856103a0565b93506103d48185602086016102d5565b6103dd816102fd565b840191505092915050565b5f6020820190508181035f83015261040081846103b0565b905092915050565b5f73ffffffffffffffffffffffffffffffffffffffff82169050919050565b5f61043182610408565b9050919050565b61044181610427565b82525050565b5f60208201905061045a5f830184610438565b9291505056fea26469706673582212207101f0afd73585f746f60620c76c7010878f008259a4ae759ee8e5b2021dbaa464736f6c63430008160033",
					"opcodes": "PUSH2 0x100 PUSH1 0x40 MSTORE PUSH5 0x2540BE3FF PUSH1 0x80 SWAP1 DUP2 MSTORE POP CALLVALUE DUP1 ISZERO PUSH2 0x1C JUMPI PUSH0 DUP1 REVERT JUMPDEST POP ADDRESS PUSH20 0xFFFFFFFFFFFFFFFFFFFFFFFFFFFFFFFFFFFFFFFF AND PUSH1 0xA0 DUP2 PUSH20 0xFFFFFFFFFFFFFFFFFFFFFFFFFFFFFFFFFFFFFFFF AND DUP2 MSTORE POP POP PUSH2 0x45E PUSH1 0x80 DUP2 DUP2 MSTORE POP POP PUSH2 0x69 PUSH2 0x75 PUSH1 0x20 SHL PUSH1 0x20 SHR JUMP JUMPDEST PUSH1 0xE0 DUP2 DUP2 MSTORE POP POP PUSH2 0x82 JUMP JUMPDEST PUSH0 DUP1 PUSH1 0x9 SWAP1 POP DUP1 SWAP2 POP POP SWAP1 JUMP JUMPDEST PUSH1 0x80 MLOAD PUSH1 0xA0 MLOAD PUSH1 0xC0 MLOAD PUSH1 0xE0 MLOAD PUSH2 0x496 PUSH2 0xB5 PUSH0 CODECOPY PUSH0 PUSH2 0x207 ADD MSTORE PUSH0 PUSH2 0x1DE ADD MSTORE PUSH0 PUSH2 0x28C ADD MSTORE PUSH0 PUSH2 0x268 ADD MSTORE PUSH2 0x496 PUSH0 RETURN INVALID PUSH1 0x80 PUSH1 0x40 MSTORE CALLVALUE DUP1 ISZERO PUSH2 0xF JUMPI PUSH0 DUP1 REVERT JUMPDEST POP PUSH1 0x4 CALLDATASIZE LT PUSH2 0x91 JUMPI PUSH0 CALLDATALOAD PUSH1 0xE0 SHR DUP1 PUSH4 0x79135C7D GT PUSH2 0x64 JUMPI DUP1 PUSH4 0x79135C7D EQ PUSH2 0x10D JUMPI DUP1 PUSH4 0x858E0403 EQ PUSH2 0x12B JUMPI DUP1 PUSH4 0xED7FF875 EQ PUSH2 0x149 JUMPI DUP1 PUSH4 0xF1513021 EQ PUSH2 0x167 JUMPI DUP1 PUSH4 0xF8A8FD6D EQ PUSH2 0x185 JUMPI PUSH2 0x91 JUMP JUMPDEST DUP1 PUSH4 0x1ADEAD50 EQ PUSH2 0x95 JUMPI DUP1 PUSH4 0x1D9AFDD2 EQ PUSH2 0xB3 JUMPI DUP1 PUSH4 0x2314D48C EQ PUSH2 0xD1 JUMPI DUP1 PUSH4 0x4064572E EQ PUSH2 0xEF JUMPI JUMPDEST PUSH0 DUP1 REVERT JUMPDEST PUSH2 0x9D PUSH2 0x1A3 JUMP JUMPDEST PUSH1 0x40 MLOAD PUSH2 0xAA SWAP2 SWAP1 PUSH2 0x345 JUMP JUMPDEST PUSH1 0x40 MLOAD DUP1 SWAP2 SUB SWAP1 RETURN JUMPDEST PUSH2 0xBB PUSH2 0x1DC JUMP JUMPDEST PUSH1 0x40 MLOAD PUSH2 0xC8 SWAP2 SWAP1 PUSH2 0x37D JUMP JUMPDEST PUSH1 0x40 MLOAD DUP1 SWAP2 SUB SWAP1 RETURN JUMPDEST PUSH2 0xD9 PUSH2 0x200 JUMP JUMPDEST PUSH1 0x40 MLOAD PUSH2 0xE6 SWAP2 SWAP1 PUSH2 0x37D JUMP JUMPDEST PUSH1 0x40 MLOAD DUP1 SWAP2 SUB SWAP1 RETURN JUMPDEST PUSH2 0xF7 PUSH2 0x205 JUMP JUMPDEST PUSH1 0x40 MLOAD PUSH2 0x104 SWAP2 SWAP1 PUSH2 0x37D JUMP JUMPDEST PUSH1 0x40 MLOAD DUP1 SWAP2 SUB SWAP1 RETURN JUMPDEST PUSH2 0x115 PUSH2 0x229 JUMP JUMPDEST PUSH1 0x40 MLOAD PUSH2 0x122 SWAP2 SWAP1 PUSH2 0x3E8 JUMP JUMPDEST PUSH1 0x40 MLOAD DUP1 SWAP2 SUB SWAP1 RETURN JUMPDEST PUSH2 0x133 PUSH2 0x262 JUMP JUMPDEST PUSH1 0x40 MLOAD PUSH2 0x140 SWAP2 SWAP1 PUSH2 0x447 JUMP JUMPDEST PUSH1 0x40 MLOAD DUP1 SWAP2 SUB SWAP1 RETURN JUMPDEST PUSH2 0x151 PUSH2 0x266 JUMP JUMPDEST PUSH1 0x40 MLOAD PUSH2 0x15E SWAP2 SWAP1 PUSH2 0x37D JUMP JUMPDEST PUSH1 0x40 MLOAD DUP1 SWAP2 SUB SWAP1 RETURN JUMPDEST PUSH2 0x16F PUSH2 0x28A JUMP JUMPDEST PUSH1 0x40 MLOAD PUSH2 0x17C SWAP2 SWAP1 PUSH2 0x447 JUMP JUMPDEST PUSH1 0x40 MLOAD DUP1 SWAP2 SUB SWAP1 RETURN JUMPDEST PUSH2 0x18D PUSH2 0x2AE JUMP JUMPDEST PUSH1 0x40 MLOAD PUSH2 0x19A SWAP2 SWAP1 PUSH2 0x37D JUMP JUMPDEST PUSH1 0x40 MLOAD DUP1 SWAP2 SUB SWAP1 RETURN JUMPDEST PUSH1 0x40 MLOAD DUP1 PUSH1 0x40 ADD PUSH1 0x40 MSTORE DUP1 PUSH1 0x4 DUP2 MSTORE PUSH1 0x20 ADD PUSH32 0x3078414100000000000000000000000000000000000000000000000000000000 DUP2 MSTORE POP DUP2 JUMP JUMPDEST PUSH32 0x0 DUP2 JUMP JUMPDEST PUSH1 0xA DUP2 JUMP JUMPDEST PUSH32 0x0 DUP2 JUMP JUMPDEST PUSH1 0x40 MLOAD DUP1 PUSH1 0x40 ADD PUSH1 0x40 MSTORE DUP1 PUSH1 0x3 DUP2 MSTORE PUSH1 0x20 ADD PUSH32 0x5754460000000000000000000000000000000000000000000000000000000000 DUP2 MSTORE POP DUP2 JUMP JUMPDEST PUSH0 DUP2 JUMP JUMPDEST PUSH32 0x0 DUP2 JUMP JUMPDEST PUSH32 0x0 DUP2 JUMP JUMPDEST PUSH0 DUP1 PUSH1 0x9 SWAP1 POP DUP1 SWAP2 POP POP SWAP1 JUMP JUMPDEST PUSH0 DUP2 MLOAD SWAP1 POP SWAP2 SWAP1 POP JUMP JUMPDEST PUSH0 DUP3 DUP3 MSTORE PUSH1 0x20 DUP3 ADD SWAP1 POP SWAP3 SWAP2 POP POP JUMP JUMPDEST PUSH0 JUMPDEST DUP4 DUP2 LT ISZERO PUSH2 0x2F2 JUMPI DUP1 DUP3 ADD MLOAD DUP2 DUP5 ADD MSTORE PUSH1 0x20 DUP2 ADD SWAP1 POP PUSH2 0x2D7 JUMP JUMPDEST PUSH0 DUP5 DUP5 ADD MSTORE POP POP POP POP JUMP JUMPDEST PUSH0 PUSH1 0x1F NOT PUSH1 0x1F DUP4 ADD AND SWAP1 POP SWAP2 SWAP1 POP JUMP JUMPDEST PUSH0 PUSH2 0x317 DUP3 PUSH2 0x2BB JUMP JUMPDEST PUSH2 0x321 DUP2 DUP6 PUSH2 0x2C5 JUMP JUMPDEST SWAP4 POP PUSH2 0x331 DUP2 DUP6 PUSH1 0x20 DUP7 ADD PUSH2 0x2D5 JUMP JUMPDEST PUSH2 0x33A DUP2 PUSH2 0x2FD JUMP JUMPDEST DUP5 ADD SWAP2 POP POP SWAP3 SWAP2 POP POP JUMP JUMPDEST PUSH0 PUSH1 0x20 DUP3 ADD SWAP1 POP DUP2 DUP2 SUB PUSH0 DUP4 ADD MSTORE PUSH2 0x35D DUP2 DUP5 PUSH2 0x30D JUMP JUMPDEST SWAP1 POP SWAP3 SWAP2 POP POP JUMP JUMPDEST PUSH0 DUP2 SWAP1 POP SWAP2 SWAP1 POP JUMP JUMPDEST PUSH2 0x377 DUP2 PUSH2 0x365 JUMP JUMPDEST DUP3 MSTORE POP POP JUMP JUMPDEST PUSH0 PUSH1 0x20 DUP3 ADD SWAP1 POP PUSH2 0x390 PUSH0 DUP4 ADD DUP5 PUSH2 0x36E JUMP JUMPDEST SWAP3 SWAP2 POP POP JUMP JUMPDEST PUSH0 DUP2 MLOAD SWAP1 POP SWAP2 SWAP1 POP JUMP JUMPDEST PUSH0 DUP3 DUP3 MSTORE PUSH1 0x20 DUP3 ADD SWAP1 POP SWAP3 SWAP2 POP POP JUMP JUMPDEST PUSH0 PUSH2 0x3BA DUP3 PUSH2 0x396 JUMP JUMPDEST PUSH2 0x3C4 DUP2 DUP6 PUSH2 0x3A0 JUMP JUMPDEST SWAP4 POP PUSH2 0x3D4 DUP2 DUP6 PUSH1 0x20 DUP7 ADD PUSH2 0x2D5 JUMP JUMPDEST PUSH2 0x3DD DUP2 PUSH2 0x2FD JUMP JUMPDEST DUP5 ADD SWAP2 POP POP SWAP3 SWAP2 POP POP JUMP JUMPDEST PUSH0 PUSH1 0x20 DUP3 ADD SWAP1 POP DUP2 DUP2 SUB PUSH0 DUP4 ADD MSTORE PUSH2 0x400 DUP2 DUP5 PUSH2 0x3B0 JUMP JUMPDEST SWAP1 POP SWAP3 SWAP2 POP POP JUMP JUMPDEST PUSH0 PUSH20 0xFFFFFFFFFFFFFFFFFFFFFFFFFFFFFFFFFFFFFFFF DUP3 AND SWAP1 POP SWAP2 SWAP1 POP JUMP JUMPDEST PUSH0 PUSH2 0x431 DUP3 PUSH2 0x408 JUMP JUMPDEST SWAP1 POP SWAP2 SWAP1 POP JUMP JUMPDEST PUSH2 0x441 DUP2 PUSH2 0x427 JUMP JUMPDEST DUP3 MSTORE POP POP JUMP JUMPDEST PUSH0 PUSH1 0x20 DUP3 ADD SWAP1 POP PUSH2 0x45A PUSH0 DUP4 ADD DUP5 PUSH2 0x438 JUMP JUMPDEST SWAP3 SWAP2 POP POP JUMP INVALID LOG2 PUSH5 0x6970667358 0x22 SLT KECCAK256 PUSH18 0x1F0AFD73585F746F60620C76C7010878F00 DUP3 MSIZE LOG4 0xAE PUSH22 0x9EE8E5B2021DBAA464736F6C63430008160033000000 "
				},
				"gasEstimates": {
					"creation": {
						"codeDepositCost": "234800",
						"executionCost": "infinite",
						"totalCost": "infinite"
					},
					"external": {
						"CONSTANT_ADDRESS()": "394",
						"CONSTANT_BYTES()": "infinite",
						"CONSTANT_NUM()": "370",
						"CONSTANT_STRING()": "infinite",
						"IMMUTABLE_ADDRESS()": "infinite",
						"IMMUTABLE_BLOCK()": "infinite",
						"IMMUTABLE_NUM()": "infinite",
						"IMMUTABLE_TEST()": "infinite",
						"test()": "433"
					}
				},
				"methodIdentifiers": {
					"CONSTANT_ADDRESS()": "858e0403",
					"CONSTANT_BYTES()": "79135c7d",
					"CONSTANT_NUM()": "2314d48c",
					"CONSTANT_STRING()": "1adead50",
					"IMMUTABLE_ADDRESS()": "f1513021",
					"IMMUTABLE_BLOCK()": "1d9afdd2",
					"IMMUTABLE_NUM()": "ed7ff875",
					"IMMUTABLE_TEST()": "4064572e",
					"test()": "f8a8fd6d"
				}
			},
			"storageLayout": {
				"storage": [],
				"types": null
			},
			"userdoc": {
				"kind": "user",
				"methods": {},
				"version": 1
			}
		}
	}
}